:100000000C942A000C9447000C9447000C94470071
:100010000C9447000C9447000C9447000C94470044
:100020000C9447000C9447000C940B2F0C94592F00
:100030000C9447000C9447000C9447000C94470024
:100040000C9447000C9447000C9447000C94470014
:100050000C94470011241FBECFE5D8E0DEBFCDBF12
:1000600012E0A0E6B0E0E2E4F1E602C005900D92F5
:10007000AA38B107D9F712E0AAE8B2E001C01D9290
:10008000A539B107E1F70E949E2F0C949F300C9484
:100090000000EF92FF920F931F937B018C0120E0F1
:1000A00030E040E05FE40E94F50388238CF0C80153
:1000B000B70120E030E040E05FE40E94C1010E940F
:1000C000B3049B01AC01205030404040504806C072
:1000D000C801B7010E94B3049B01AC01B901CA0178
:1000E0001F910F91FF90EF900895A0E0B0E0EBE733
:1000F000F0E00C94EC2FDC012B01FA019C91923082
:1001000008F439C1EB018881823008F433C194309E
:1001100069F4843009F02FC111969C91119789815F
:10012000981709F428C1A3E6B1E025C1843009F489
:1001300021C18230A9F4923009F01DC19A01AD01AC
:1001400088E0EA010990AE01E90109929E0181501F
:10015000C1F7E201898111969C918923818308C1AD
:10016000923009F407C112962D903C901397EB0141
:100170008A819B811496AD90BD90CD90DC901797AD
:10018000EC80FD800E811F819101281B390BB90184
:1001900037FF04C066277727621B730B6032710537
:1001A0000CF061C0121613066CF537014801062EDB
:1001B00004C096948794779467940A94D2F721E0C8
:1001C00030E040E050E004C0220F331F441F551FB1
:1001D0006A95D2F721503040404050402E213F21B7
:1001E00040235123211531054105510521F021E01E
:1001F00030E040E050E079018A01E628F72808293C
:1002000019293CC0232BD1F1260E371E350146019A
:10021000062E04C096948794779467940A94D2F734
:1002200021E030E040E050E004C0220F331F441FC3
:10023000551F6A95D2F721503040404050402A2146
:100240003B214C215D21211531054105510521F04E
:1002500021E030E040E050E059016A01A628B728CB
:10026000C828D9280BC0821593052CF01C01AA249C
:10027000BB24650103C0EE24FF24870111969C91E5
:10028000D20111968C91981709F445C0992339F041
:10029000A80197012A193B094C095D0906C0A6016E
:1002A00095012E193F09400B510B57FD08C01182D3
:1002B0003382228224833583468357831DC081E0A5
:1002C00081833382228288279927DC01821B930B4A
:1002D000A40BB50B84839583A683B7830DC0220F2F
:1002E000331F441F551F24833583468357838281E0
:1002F000938101979383828324813581468157813D
:10030000DA01C9010197A109B1098F5F9F4FAF4F72
:10031000BF4328F30BC0918333822282EA0CFB1C7B
:100320000C1D1D1DE482F5820683178383E0808304
:10033000248135814681578157FF1AC0C901AA27F8
:1003400097FDA095BA2F81709070A070B0705695EF
:10035000479537952795822B932BA42BB52B848318
:100360009583A683B7838281938101969383828349
:10037000DF0101C0D201CD01CDB7DEB7E2E10C94BF
:100380000830A0E2B0E0E7ECF1E00C94F82F6983CC
:100390007A838B839C832D833E834F835887E9E048
:1003A000EE2EF12CEC0EFD1ECE010196B7010E943F
:1003B0002B068E010F5E1F4FCE010596B8010E94DD
:1003C0002B068A8991E089278A8BC701B801AE0183
:1003D000475E5F4F0E9475000E945605A096E6E0BA
:1003E0000C941430A0E2B0E0E8EFF1E00C94F82FA8
:1003F00069837A838B839C832D833E834F835887C5
:10040000F9E0EF2EF12CEC0EFD1ECE010196B701A6
:100410000E942B068E010F5E1F4FCE010596B8017C
:100420000E942B06C701B801AE01475E5F4F0E94D4
:1004300075000E945605A096E6E00C941430A0E2E8
:10044000B0E0E5E2F2E00C94EC2F69837A838B83D1
:100450009C832D833E834F835887CE010196BE0136
:10046000675F7F4F0E942B06CE010596BE016F5E2F
:100470007F4F0E942B069985923088F089898230BF
:10048000C8F0943019F4823051F404C0843029F457
:10049000923081F483E691E0C6C0923049F420E0C6
:1004A0009A858A89981321E02A87CE010996BBC0D4
:1004B000823049F420E09A858A89981321E02A8BBA
:1004C000CE014196B0C02D843E844F8458886D88FB
:1004D0007E888F88988CEE24FF248701AA24BB2471
:1004E000650140E050E060E070E0E0E0F0E0C10174
:1004F00081709070892BE9F0E60CF71C081D191D1E
:100500009A01AB012A0D3B1D4C1D5D1D80E090E062
:10051000A0E0B0E0E614F7040805190520F481E036
:1005200090E0A0E0B0E0BA01A901480F591F6A1F8E
:100530007B1FAA0CBB1CCC1CDD1C97FE08C081E0F5
:1005400090E0A0E0B0E0A82AB92ACA2ADB2A3196B6
:10055000E032F10549F0660C771C881C991C569412
:10056000479437942794C3CFFA85EA892B893C892D
:100570008B859C85280F391F2E5F3F4F17C0CA01FE
:1005800081709070892B61F016950795F794E79428
:1005900080E090E0A0E0B0E8E82AF92A0A2B1B2BC3
:1005A00076956795579547952F5F3F4F77FDE7CF36
:1005B0000CC0440F551F661F771F17FD4160EE0CDE
:1005C000FF1C001F111F21503040403090E05907A0
:1005D00090E0690790E4790760F32B8F3C8FDB0193
:1005E000CA018F779070A070B07080349105A1051A
:1005F000B10561F447FD0AC0E114F10401051105DC
:1006000029F0405C5F4F6F4F7F4F40781A8EFE1786
:1006100011F081E08A8F4D8F5E8F6F8F78A383E01A
:10062000898FCE0149960E945605A096E2E10C946E
:100630000830A8E1B0E0EFE1F3E00C94F42F698317
:100640007A838B839C832D833E834F835887B9E0C5
:10065000EB2EF12CEC0EFD1ECE010196B7010E948F
:100660002B068E010F5E1F4FCE010596B8010E942A
:100670002B062985223008F47EC03989323010F4E7
:10068000B8017CC08A859A8989278A87243011F02D
:10069000223031F4231709F06EC063E671E06EC0BA
:1006A000343039F41D861E861F86188A1C861B86E8
:1006B00004C0323021F484E08987B7015FC02B8504
:1006C0003C858B899C89281B390B3C872B87ED84C3
:1006D000FE840F851889AD88BE88CF88D88CEA142F
:1006E000FB040C051D0540F4EE0CFF1C001F111F40
:1006F000215030403C872B8720E030E040E050E044
:1007000080E090E0A0E0B0E460E070E0EA14FB0478
:100710000C051D0540F0282B392B4A2B5B2BEA18C2
:10072000FB080C091D09B695A79597958795EE0CC2
:10073000FF1C001F111F6F5F7F4F6F31710531F775
:10074000DA01C9018F779070A070B0708034910584
:10075000A105B10561F427FD0AC0E114F10401050A
:10076000110529F0205C3F4F4F4F5F4F20782D87B8
:100770003E874F87588BBE01675F7F4FCB010E943A
:1007800056056896EAE00C941030A8E1B0E0EBEC76
:10079000F3E00C94F82F69837A838B839C832D83F9
:1007A0003E834F83588789E0E82EF12CEC0EFD1E26
:1007B000CE010196B7010E942B068E010F5E1F4FDE
:1007C000CE010596B8010E942B068985823040F043
:1007D0008989823028F0C701B8010E94A30601C0B0
:1007E0008FEF6896E6E00C941430A8E1B0E0EBEFF0
:1007F000F3E00C94F82F69837A838B839C832D8399
:100800003E834F83588789E0E82EF12CEC0EFD1EC5
:10081000CE010196B7010E942B068E010F5E1F4F7D
:10082000CE010596B8010E942B068985823040F0E2
:100830008989823028F0C701B8010E94A30601C04F
:100840008FEF6896E6E00C941430A8E1B0E0EBE29C
:10085000F4E00C94F82F69837A838B839C832D8337
:100860003E834F83588789E0E82EF12CEC0EFD1E65
:10087000CE010196B7010E942B068E010F5E1F4F1D
:10088000CE010596B8010E942B068985823040F082
:100890008989823028F0C701B8010E94A30601C0EF
:1008A00081E06896E6E00C941430A8E0B0E0EBE557
:1008B000F4E00C94F52F9B01AC0183E08983DA010D
:1008C000C9018827B7FD83959927AA27BB27B82E8A
:1008D000211531054105510519F482E089833AC09B
:1008E0008823A9F0203080E0380780E0480780E8BE
:1008F000580729F460E070E080E09FEC30C0EE24FF
:10090000FF248701E21AF30A040B150B02C07901D8
:100910008A018EE1C82ED12CDC82CB82ED82FE8250
:100920000F831887C801B7010E94070501971816A1
:10093000190684F4082E04C0EE0CFF1C001F111FC2
:100940000A94D2F7ED82FE820F831887C81AD90A5B
:10095000DC82CB82BA82CE0101960E94560528968F
:10096000E9E00C941130ACE0B0E0E9EBF4E00C9479
:10097000FC2F69837A838B839C83CE010196BE0111
:100980006B5F7F4F0E942B068D81823061F1823038
:1009900050F1843021F48E81882351F12EC02F81B3
:1009A000388537FD20C06E812F3131051CF066235C
:1009B000F9F023C08EE190E0821B930B29853A85E4
:1009C0004B855C8504C056954795379527958A9544
:1009D000D2F76623B1F050954095309521953F4F61
:1009E0004F4F5F4F0EC020E030E040E050E009C0C4
:1009F0002FEF3FEF4FEF5FE704C020E030E040E033
:100A000050E8B901CA012C96E2E00C941830EF923C
:100A1000FF920F931F937B018C0180E0E81680E02A
:100A2000F80681E0080780E0180788F48FEFE816E1
:100A3000F1040105110531F028F088E090E0A0E014
:100A4000B0E017C080E090E0A0E0B0E012C080E02D
:100A5000E81680E0F80680E0080781E0180728F033
:100A600088E190E0A0E0B0E004C080E190E0A0E088
:100A7000B0E020E230E040E050E0281B390B4A0BA8
:100A80005B0B04C016950795F794E7948A95D2F707
:100A9000F701E559FE4F8081281B310941095109B1
:100AA000C9011F910F91FF90EF900895DF92EF928F
:100AB000FF920F931F93FC01E480F580068117815C
:100AC000D1808081823048F480E090E0A0E1B0E005
:100AD000E82AF92A0A2B1B2BA5C0843009F49FC0F1
:100AE000823021F4EE24FF24870105C0E114F104D3
:100AF0000105110519F4E0E0F0E096C06281738110
:100B00009FEF623879070CF05BC022E83FEF261BAD
:100B1000370B2A3131052CF020E030E040E050E086
:100B20002AC0B801A701022E04C076956795579593
:100B300047950A94D2F781E090E0A0E0B0E004C0CD
:100B4000880F991FAA1FBB1F2A95D2F70197A109E9
:100B5000B1098E219F21A023B1230097A105B105E2
:100B600021F081E090E0A0E0B0E09A01AB01282BF9
:100B7000392B4A2B5B2BDA01C9018F779070A0705B
:100B8000B07080349105A105B10539F427FF09C083
:100B9000205C3F4F4F4F5F4F04C0215C3F4F4F4F92
:100BA0005F4FE0E0F0E02030A0E03A07A0E04A0725
:100BB000A0E45A0710F0E1E0F0E079018A0127C0D3
:100BC0006038710564F5FB01E158FF4FD801C7019A
:100BD0008F779070A070B07080349105A105B10539
:100BE00039F4E7FE0DC080E490E0A0E0B0E004C07E
:100BF0008FE390E0A0E0B0E0E80EF91E0A1F1B1F93
:100C000017FF05C016950795F794E794319687E08E
:100C100016950795F794E7948A95D1F705C0EE24C9
:100C2000FF248701EFEFF0E06E2F67956627679549
:100C3000902F9F77D794DD24D7948E2F8695492FB8
:100C4000462B582F5D29B701CA011F910F91FF90C4
:100C5000EF90DF900895FC01DB01408151812281FA
:100C6000622F6F7770E0221F2227221F9381892F26
:100C7000880F822B282F30E0991F9927991F1196F2
:100C80009C93119721153105A9F541155105610571
:100C9000710511F482E037C082E89FEF13969C93B0
:100CA0008E9312979A01AB0167E0220F331F441F06
:100CB000551F6A95D1F783E08C930DC0220F331F27
:100CC000441F551F12968D919C911397019713966F
:100CD0009C938E931297203080E0380780E048077D
:100CE00080E4580758F314962D933D934D935C93ED
:100CF000179708952F3F310579F441155105610586
:100D0000710519F484E08C93089564FF03C081E0B9
:100D10008C9312C01C9210C02F57304013963C93F6
:100D20002E93129783E08C9387E0440F551F661F24
:100D3000771F8A95D1F7706414964D935D936D93E8
:100D40007C93179708951F93DC01FB019C919230CF
:100D500008F447C08081823008F443C0943051F4D5
:100D600011961C91843099F58181682F70E0611B88
:100D700071093FC0843021F0923031F48230B9F1F2
:100D80008181882389F12DC011961C9111978230A1
:100D9000F1F081811817D9F412962D913C91139797
:100DA000828193818217930794F028173907BCF04A
:100DB00014968D919D910D90BC91A02D248135812B
:100DC00046815781281739074A075B0718F4112312
:100DD00041F00AC082179307A407B50740F4112316
:100DE00019F061E070E005C06FEF7FEF02C060E0D6
:100DF00070E0CB011F910895DF93CF93CDB7DEB79D
:100E00002A970FB6F894DEBF0FBECDBF8A836B83DF
:100E10004C8319828A81843008F0FBC08B81883032
:100E200008F0F7C08C81823008F0F3C08C81282F45
:100E300030E03A87298789859A85009709F475C03B
:100E400029853A852130310509F0E5C08A81282FAE
:100E500030E038872F838F8198858130910549F163
:100E60002F813885223031052CF48F8198850097A9
:100E700061F0D1C02F8138852230310571F18F8129
:100E8000988583309105E9F1C6C0AAE3B0E0EAE3B2
:100E9000F0E08081482F8B81282F30E081E090E0C6
:100EA000022E02C0880F991F0A94E2F7842B8C93BC
:100EB000B2C0A7E3B0E0E7E3F0E08081482F8B8188
:100EC000282F30E081E090E0022E02C0880F991FA9
:100ED0000A94E2F7842B8C939EC0A4E3B0E0E4E391
:100EE000F0E08081482F8B81282F30E081E090E076
:100EF000022E02C0880F991F0A94E2F7842B8C936C
:100F00008AC0A1E3B0E0E1E3F0E08081482F8B816B
:100F1000282F30E081E090E0022E02C0880F991F58
:100F20000A94E2F7842B8C9376C08A81282F30E0D4
:100F30003E832D838D819E818130910559F12D81D4
:100F40003E81223031052CF48D819E81009769F01D
:100F500062C02D813E812230310589F18D819E81D3
:100F60008330910509F440C056C0AAE3B0E0EAE33B
:100F7000F0E08081482F8B81282F30E081E090E0E5
:100F8000022E02C0880F991F0A94E2F780958423ED
:100F90008C9341C0A7E3B0E0E7E3F0E08081482F05
:100FA0008B81282F30E081E090E0022E02C0880F74
:100FB000991F0A94E2F7809584238C932CC0A4E3B4
:100FC000B0E0E4E3F0E08081482F8B81282F30E00F
:100FD00081E090E0022E02C0880F991F0A94E2F788
:100FE000809584238C9317C0A1E3B0E0E1E3F0E0A7
:100FF0008081482F8B81282F30E081E090E0022E05
:1010000002C0880F991F0A94E2F7809584238C937D
:1010100002C081E0898389812A960FB6F894DEBFE9
:101020000FBECDBFCF91DF910895DF93CF93CDB7A2
:10103000DEB72A970FB6F894DEBF0FBECDBF8A8306
:101040006B834C8319828A81843008F0FEC08B81C7
:10105000883008F0FAC08C81823008F0F6C08C81AC
:10106000282F30E03A87298789859A85009709F4E7
:1010700075C029853A852130310509F0E3C08A81A0
:10108000282F30E038872F838F8198858130910514
:1010900049F12F813885223031052CF48F819885D4
:1010A000009761F0D4C02F8138852230310571F16D
:1010B0008F81988583309105E9F1C9C0ABE3B0E039
:1010C000EBE3F0E08081482F8B81282F30E081E036
:1010D00090E0022E02C0880F991F0A94E2F7842B39
:1010E0008C93B5C0A8E3B0E0E8E3F0E08081482F3E
:1010F0008B81282F30E081E090E0022E02C0880F23
:10110000991F0A94E2F7842B8C93A1C0A5E3B0E069
:10111000E5E3F0E08081482F8B81282F30E081E0EB
:1011200090E0022E02C0880F991F0A94E2F7842BE8
:101130008C938DC0A2E3B0E0E2E3F0E08081482F21
:101140008B81282F30E081E090E0022E02C0880FD2
:10115000991F0A94E2F7842B8C9379C08A81282FF7
:1011600030E03E832D838D819E818130910559F140
:101170002D813E81223031052CF48D819E81009796
:1011800069F065C02D813E812230310589F18D8164
:101190009E818330910509F440C059C0ABE3B0E0B3
:1011A000EBE3F0E08081482F8B81282F30E081E055
:1011B00090E0022E02C0880F991F0A94E2F78095F2
:1011C00084238C9344C0A8E3B0E0E8E3F0E080819E
:1011D000482F8B81282F30E081E090E0022E02C062
:1011E000880F991F0A94E2F7809584238C932FC06F
:1011F000A5E3B0E0E5E3F0E08081482F8B81282F64
:1012000030E081E090E0022E02C0880F991F0A941E
:10121000E2F7809584238C931AC0A2E3B0E0E2E366
:10122000F0E08081482F8B81282F30E081E090E032
:10123000022E02C0880F991F0A94E2F7809584233A
:101240008C9305C081E0898302C081E08983898114
:101250002A960FB6F894DEBF0FBECDBFCF91DF91B7
:101260000895DF93CF93CDB7DEB727970FB6F894E5
:10127000DEBF0FBECDBF8A836B835D834C83198233
:101280008A81843008F078C08B81883008F074C07F
:101290008A81282F30E03F832E834E815F81413049
:1012A000510559F18E819F818230910534F42E8150
:1012B0003F812115310569F05CC04E815F8142306C
:1012C000510579F18E819F818330910509F43DC0EC
:1012D00050C0E9E3F0E08081282F30E08B81882F37
:1012E00090E0A90102C0559547958A95E2F7CA0199
:1012F0008170EC81FD81808341C0E6E3F0E0808174
:10130000282F30E08B81882F90E0A90102C05595ED
:1013100047958A95E2F7CA018170EC81FD8180834F
:101320002DC0E3E3F0E08081282F30E08B81882F0F
:1013300090E0A90102C0559547958A95E2F7CA0148
:101340008170EC81FD81808319C0E0E3F0E0808151
:10135000282F30E08B81882F90E0A90102C055959D
:1013600047958A95E2F7CA018170EC81FD818083FF
:1013700005C081E0898302C081E089838981279645
:101380000FB6F894DEBF0FBECDBFCF91DF910895A9
:10139000DF93CF9300D000D00F92CDB7DEB78A8312
:1013A0006B8319828A81843008F076C08B81883003
:1013B00008F072C08A81282F30E03D832C838C8115
:1013C0009D818130910549F12C813D81223031058B
:1013D0002CF48C819D81009761F05BC02C813D8154
:1013E0002230310571F18C819D8183309105E9F1C5
:1013F00050C0ABE3B0E0EBE3F0E08081482F8B819D
:10140000282F30E081E090E0022E02C0880F991F63
:101410000A94E2F784278C9341C0A8E3B0E0E8E3A4
:10142000F0E08081482F8B81282F30E081E090E030
:10143000022E02C0880F991F0A94E2F784278C932A
:101440002DC0A5E3B0E0E5E3F0E08081482F8B817B
:10145000282F30E081E090E0022E02C0880F991F13
:101460000A94E2F784278C9319C0A2E3B0E0E2E388
:10147000F0E08081482F8B81282F30E081E090E0E0
:10148000022E02C0880F991F0A94E2F784278C93DA
:1014900005C081E0898302C081E0898389810F9042
:1014A0000F900F900F900F90CF91DF910895DF93E1
:1014B000CF93CDB7DEB729970FB6F894DEBF0FBE36
:1014C000CDBF8A836B8319828A81843008F0A4C0DF
:1014D0008B818F3FB1F58A81282F30E039872887AB
:1014E0008885998581309105D1F02885398522300C
:1014F00031052CF488859985009761F01FC02885F7
:1015000039852230310581F08885998583309105B0
:1015100081F014C0EAE3F0E08FEF80837FC0E7E35F
:10152000F0E08FEF80837AC0E4E3F0E08FEF808318
:1015300075C0E1E3F0E08FEF808370C081E08983C4
:101540006DC08B81882391F58A81282F30E03F83FD
:101550002E838E819F8181309105C9F02E813F813C
:10156000223031052CF48E819F81009761F01BC0E1
:101570002E813F812230310571F08E819F81833031
:10158000910569F010C0EAE3F0E0108247C0E7E39C
:10159000F0E0108243C0E4E3F0E010823FC0E1E3FA
:1015A000F0E010823BC081E0898338C08A81282F17
:1015B00030E03D832C838C819D8181309105D1F079
:1015C0002C813D81223031052CF48C819D81009746
:1015D00061F01FC02C813D812230310581F08C816A
:1015E0009D818330910581F014C0EAE3F0E08B81A6
:1015F000808314C0E7E3F0E08B8180830FC0E4E3D5
:10160000F0E08B8180830AC0E1E3F0E08B8180838E
:1016100005C081E0898302C081E0898389812996A0
:101620000FB6F894DEBF0FBECDBFCF91DF91089506
:10163000DF93CF93CDB7DEB729970FB6F894DEBF0F
:101640000FBECDBF8A836B8319828A81843008F0F4
:10165000A4C08B818F3FB1F58A81282F30E0398774
:1016600028878885998581309105D1F0288539852D
:10167000223031052CF488859985009761F01FC0D0
:10168000288539852230310581F088859985833018
:10169000910581F014C0EBE3F0E08FEF80837FC011
:1016A000E8E3F0E08FEF80837AC0E5E3F0E08FEFCE
:1016B000808375C0E2E3F0E08FEF808370C081E04B
:1016C00089836DC08B81882391F58A81282F30E032
:1016D0003F832E838E819F8181309105C9F02E81B9
:1016E0003F81223031052CF48E819F81009761F07B
:1016F0001BC02E813F812230310571F08E819F8188
:101700008330910569F010C0EBE3F0E0108247C030
:10171000E8E3F0E0108243C0E5E3F0E010823FC070
:10172000E2E3F0E010823BC081E0898338C08A8127
:10173000282F30E03D832C838C819D818130910561
:10174000D1F02C813D81223031052CF48C819D819A
:10175000009761F01FC02C813D812230310581F05E
:101760008C819D818330910581F014C0EBE3F0E022
:101770008B81808314C0E8E3F0E08B8180830FC00D
:10178000E5E3F0E08B8180830AC0E2E3F0E08B8147
:10179000808305C081E0898302C081E089838981DB
:1017A00029960FB6F894DEBF0FBECDBFCF91DF9163
:1017B0000895DF93CF9300D000D000D0CDB7DEB72F
:1017C0008A837C836B8319828A81843008F03EC0CF
:1017D0008A81282F30E03E832D838D819E81813048
:1017E0009105E1F02D813E81223031052CF48D816F
:1017F0009E81009761F027C02D813E812230310506
:10180000A1F08D819E8183309105B1F01CC0E9E388
:10181000F0E08081EB81FC8180831AC0E6E3F0E098
:101820008081EB81FC81808313C0E3E3F0E0808161
:10183000EB81FC8180830CC0E0E3F0E08081EB81F0
:10184000FC81808305C081E0898302C081E08983B7
:10185000898126960FB6F894DEBF0FBECDBFCF911B
:10186000DF910895DF93CF93CDB7DEB7A1E2B0E06B
:10187000E1E2F0E080818E7F8C93A1E2B0E0E1E2D2
:10188000F0E080818D7F8C93E0E2F0E082E0808365
:10189000A6E5B0E0E6E5F0E0808184608C93CF912E
:1018A000DF910895DF93CF930F92CDB7DEB7898391
:1018B000A6E5B0E0E6E5F0E0808180648C93E2E2AA
:1018C000F0E08981880F8083A6E5B0E0E6E5F0E0EE
:1018D000808184608C930F90CF91DF910895DF9386
:1018E000CF93CDB7DEB7A6E5B0E0E6E5F0E08081C6
:1018F00080688C93A6E5B0E0E6E5F0E08081806248
:101900008C93E6E5F0E080818823DCF7CF91DF91CE
:101910000895DF93CF93CDB7DEB7A6E5B0E0E6E557
:10192000F0E0808180688C93A6E5B0E0E6E5F0E029
:10193000808180618C93CF91DF910895DF93CF9365
:101940000F92CDB7DEB78983E3E2F0E08981880F9B
:101950008083A3E2B0E0E3E2F0E080818E7F8C93AD
:10196000A6E5B0E0E6E5F0E080818F7D8C93A6E50A
:10197000B0E0E6E5F0E0808180688C93E6E5F0E099
:1019800080818823DCF70F90CF91DF910895DF935A
:10199000CF930F92CDB7DEB78983E3E2F0E0898180
:1019A000880F8083A3E2B0E0E3E2F0E08081816011
:1019B0008C93A6E5B0E0E6E5F0E080818F7D8C9326
:1019C000A6E5B0E0E6E5F0E0808180688C93E6E58E
:1019D000F0E080818823DCF70F90CF91DF910895AC
:1019E000DF93CF930F92CDB7DEB78983E3E2F0E0C8
:1019F00089818083A6E5B0E0E6E5F0E0808180683B
:101A00008C93E6E5F0E080818823DCF70F90CF919E
:101A1000DF910895DF93CF93CDB7DEB7A6E5B0E0B1
:101A2000E6E5F0E0808180688C93E6E5F0E0808177
:101A30008823DCF7E3E2F0E08081CF91DF91089525
:101A4000DF93CF93CDB7DEB7E1E2F0E08081882F5E
:101A500090E0887F907080369105B1F7A6E5B0E000
:101A6000E6E5F0E0808180688C93E1E2F0E080813F
:101A7000882F90E0887F907080389105B1F7E3E27D
:101A8000F0E08081CF91DF910895DF93CF93CDB7C0
:101A9000DEB7C054D0400FB6F894DEBF0FBECDBF46
:101AA0009EAB8DAB198ACE01429698AF8FABE2E721
:101AB000F2E0FAAFE9AFF8E1FBAFE9ADFAAD0080D3
:101AC00089AD9AAD01969AAF89AFEFA9F8AD0082C2
:101AD0008FA998AD019698AF8FAB9BAD91509BAFFE
:101AE000EBADEE2351F71BA681E08CA782E08DA71A
:101AF00083E08EA7CE018F969DAF8CAFECE6F2E02F
:101B0000FFAFEEAFF6E02196FFAF2197EEADFFAD50
:101B100000808EAD9FAD01969FAF8EAFECADFDAD59
:101B200000828CAD9DAD01969DAF8CAF21969FAD8F
:101B30002197915021969FAF21972196EFAD219744
:101B4000EE2321F78DA99EA9009709F4E9C0EDA91C
:101B5000FEA98FEF8083188ADEC08889282F30E0A5
:101B6000CE018F96FC01E20FF31F908181E0692F77
:101B700040E00E9415081F86B9C08F85282F30E0ED
:101B8000CE018B96FC01E20FF31F90819E01265D32
:101B90003F4F83E0692FA9010E9431098AA588235C
:101BA00009F0A1C080E090E0A0EFB1E48B879C87B2
:101BB000AD87BE876B857C858D859E8520E030E076
:101BC0004AEF54E40E941F02DC01CB018F83988707
:101BD000A987BA876F81788589859A8520E030E06A
:101BE00040E85FE30E94250488232CF481E090E024
:101BF0009E838D833FC06F81788589859A8520E09B
:101C00003FEF4FE757E40E94C50318164CF56B856C
:101C10007C858D859E8520E030E040E251E40E9485
:101C20001F02DC01CB01BC01CD010E944900DC0197
:101C3000CB019E838D830FC088EC90E09C838B83C7
:101C40008B819C810197F1F79C838B838D819E8191
:101C500001979E838D838D819E81009769F726C0B1
:101C60006F81788589859A850E944900DC01CB01C6
:101C70009E838D838D819E819A83898389819A81B8
:101C80000197F1F79A83898311C08F85282F30E05F
:101C9000CE018B96FC01E20FF31F90819E01265D21
:101CA0003F4F83E0692FA9010E9431098AA588234B
:101CB00061F38F85282F30E08889482F50E0C901D3
:101CC000880F991F820F931F9C01220F331FCE0193
:101CD0000196820F931F840F951FFC0171968081DE
:101CE000EDA9FEA980838F858F5F8F878F858430D4
:101CF00008F443CF8889282F30E0CE018F96FC016D
:101D0000E20FF31F908181E0692F41E00E941508E6
:101D100088898F5F888B8889863008F41ECF02C03F
:101D200081E0898B8989C05CDF4F0FB6F894DEBFF4
:101D30000FBECDBFCF91DF910895DF93CF93CDB785
:101D4000DEB781E06FEF0E94570A81E06FEF0E94DB
:101D5000180B83E060E040E00E94FC0683E061E055
:101D600040E00E94FC0683E062E040E00E94FC0646
:101D700083E063E040E00E94FC0683E060E041E035
:101D80000E94150883E061E041E00E94150883E0AD
:101D900062E041E00E94150883E063E041E00E94B8
:101DA0001508CF91DF9108950F931F93DF93CF9381
:101DB000CDB7DEB7CC54D0400FB6F894DEBF0FBE1F
:101DC000CDBF80E06FEF0E94570A83E066E041E0FC
:101DD0000E94FC0683E064E041E00E94FC0683E090
:101DE00065E041E00E94FC06FE01E75BFF4F80E0FA
:101DF00090E0A0E0B2E480839183A283B3838E015C
:101E00000B5B1F4FFE01E75BFF4F60817181828199
:101E1000938120E030E04AEF54E40E941F02DC018D
:101E2000CB01F80180839183A283B383FE01EB5B36
:101E3000FF4F608171818281938120E030E040E832
:101E40005FE30E942504882344F4FE01ED5BFF4F0D
:101E500081E090E09183808364C0FE01EB5BFF4FE3
:101E6000608171818281938120E03FEF4FE757E4E9
:101E70000E94C50318160CF043C0FE01E75BFF4F3C
:101E8000608171818281938120E030E040E251E401
:101E90000E941F02DC01CB018E010D5B1F4FBC01B4
:101EA000CD010E944900DC01CB01F80191838083C0
:101EB0001FC0FE01EF5BFF4F88EC90E091838083B1
:101EC000FE01EF5BFF4F808191810197F1F7FE01E9
:101ED000EF5BFF4F91838083DE01AD5BBF4FFE015F
:101EE000ED5BFF4F80819181019711969C938E93BA
:101EF000FE01ED5BFF4F808191810097D1F624C0F8
:101F00008E010D5B1F4FFE01EB5BFF4F6081718106
:101F1000828193810E944900DC01CB01F801918309
:101F20008083FE01ED5BFF4F80819181FE01FF9672
:101F300091838083FE01FF96808191810197F1F763
:101F4000FE01FF969183808383E30E94B01182E3B8
:101F50000E94B01188E20E94B01180E090E0A0E2FF
:101F6000B2E48BAF9CAFADAFBEAF6BAD7CAD8DAD12
:101F70009EAD2BEA3AEA4AE250E40E941F02DC01DD
:101F8000CB018FAB98AFA9AFBAAF6FA978AD89ADD0
:101F90009AAD20E030E040E85FE30E94250488230A
:101FA0001CF481E08EAB91C06FA978AD89AD9AAD7C
:101FB00020E030E04FE753E40E94C50318160CF010
:101FC0007BC06BAD7CAD8DAD9EAD20E030E04AE7CF
:101FD00054E40E941903DC01CB018AAB9BABACAB90
:101FE000BDAB6AA97BA98CA99DA920E030E04AEF8E
:101FF00054E40E941F02DC01CB018EA79FA7A8AB6F
:10200000B9AB6EA57FA588A999A920E030E040E88A
:102010005FE30E94250488232CF481E090E09DA7D3
:102020008CA73FC06EA57FA588A999A920E03FEFA6
:102030004FE757E40E94C50318164CF56AA97BA91F
:102040008CA99DA920E030E040E251E40E941F02EB
:10205000DC01CB01BC01CD010E944900DC01CB01B8
:102060009DA78CA70FC088EC90E09BA78AA78AA5A4
:102070009BA50197F1F79BA78AA78CA59DA5019722
:102080009DA78CA78CA59DA5009769F724C06EA578
:102090007FA588A999A90E944900DC01CB019DA7D1
:1020A0008CA78CA59DA599A788A788A599A5019718
:1020B000F1F799A788A70FC06FA978AD89AD9AAD40
:1020C0000E944900DC01CB018EAB8EA98FA38FA1AA
:1020D0008A95F1F78FA38FE00E94B01180E090E025
:1020E000A0E2B2E48BA39CA3ADA3BEA36BA17CA191
:1020F0008DA19EA12BEA3AEA4AE250E40E941F0217
:10210000DC01CB018F8F98A3A9A3BAA36F8D78A10F
:1021100089A19AA120E030E040E85FE30E94250415
:1021200088231CF481E08E8F91C06F8D78A189A1E6
:102130009AA120E030E04FE753E40E94C50318164F
:102140000CF07BC06BA17CA18DA19EA120E030E0B2
:102150004AE754E40E941903DC01CB018A8F9B8F6C
:10216000AC8FBD8F6A8D7B8D8C8D9D8D20E030E096
:102170004AEF54E40E941F02DC01CB018E8B9F8B3F
:10218000A88FB98F6E897F89888D998D20E030E086
:1021900040E85FE30E94250488232CF481E090E06E
:1021A0009D8B8C8B3FC06E897F89888D998D20E0B7
:1021B0003FEF4FE757E40E94C50318164CF56A8DB0
:1021C0007B8D8C8D9D8D20E030E040E251E40E94BB
:1021D0001F02DC01CB01BC01CD010E944900DC01E2
:1021E000CB019D8B8C8B0FC088EC90E09B8B8A8BF6
:1021F0008A899B890197F1F79B8B8A8B8C899D89B2
:1022000001979D8B8C8B8C899D89009769F724C0E1
:102210006E897F89888D998D0E944900DC01CB01F0
:102220009D8B8C8B8C899D89998B888B88899989CA
:102230000197F1F7998B888B0FC06F8D78A189A1D9
:102240009AA10E944900DC01CB018E8F8E8D8F8771
:102250008F858A95F1F78F8781E00E94B01180E029
:1022600090E0A0E0B0E48B879C87AD87BE876B854C
:102270007C858D859E8520E030E04AEF54E40E9405
:102280001F02DC01CB018F839887A987BA876F81F2
:10229000788589859A8520E030E040E85FE30E94F8
:1022A000250488232CF481E090E09E838D833FC039
:1022B0006F81788589859A8520E03FEF4FE757E465
:1022C0000E94C50318164CF56B857C858D859E850F
:1022D00020E030E040E251E40E941F02DC01CB012B
:1022E000BC01CD010E944900DC01CB019E838D839E
:1022F0000FC088EC90E09C838B838B819C8101973D
:10230000F1F79C838B838D819E8101979E838D83C2
:102310008D819E81009769F714C06F8178858985CA
:102320009A850E944900DC01CB019E838D838D81BB
:102330009E819A83898389819A810197F1F79A8393
:10234000898386E00E94B011C45BDF4F0FB6F8941A
:10235000DEBF0FBECDBFCF91DF911F910F910895CA
:10236000DF93CF93CDB7DEB7E1970FB6F894DEBF1A
:102370000FBECDBF89AB83E064E040E00E9415084A
:1023800083E065E040E00E94150880E069A90E94B2
:10239000180B83E066E041E00E94150880E090E0C1
:1023A000A0E8BFE38DA79EA7AFA7B8AB6DA57EA59C
:1023B0008FA598A92BEA3AEA4AE250E40E941F024C
:1023C000DC01CB0189A79AA7ABA7BCA769A57AA511
:1023D0008BA59CA520E030E040E85FE30E94250447
:1023E00088231CF481E088A791C069A57AA58BA5F4
:1023F0009CA520E030E04FE753E40E94C503181687
:102400000CF07BC06DA57EA58FA598A920E030E0DB
:102410004AE754E40E941903DC01CB018CA39DA37D
:10242000AEA3BFA36CA17DA18EA19FA120E030E04F
:102430004AEF54E40E941F02DC01CB0188A399A358
:10244000AAA3BBA368A179A18AA19BA120E030E047
:1024500040E85FE30E94250488232CF481E090E0AB
:102460009F8F8E8F3FC068A179A18AA19BA120E098
:102470003FEF4FE757E40E94C50318164CF56CA1D7
:102480007DA18EA19FA120E030E040E251E40E94B6
:102490001F02DC01CB01BC01CD010E944900DC011F
:1024A000CB019F8F8E8F0FC088EC90E09D8F8C8F1B
:1024B0008C8D9D8D0197F1F79D8F8C8F8E8D9F8DCB
:1024C00001979F8F8E8F8E8D9F8D009769F724C007
:1024D00068A179A18AA19BA10E944900DC01CB01DE
:1024E0009F8F8E8F8E8D9F8D9B8F8A8F8A8D9B8DD8
:1024F0000197F1F79B8F8A8F0FC069A57AA58BA5ED
:102500009CA50E944900DC01CB0188A788A5898F82
:10251000898D8A95F1F7898F83E066E040E00E941B
:10252000150889A9982F9295907F80E0692F0E94C5
:10253000180B83E066E041E00E94150880E090E01F
:10254000A0E8BFE38D8B9E8BAF8BB88F6D897E89A2
:102550008F89988D2BEA3AEA4AE250E40E941F02E2
:10256000DC01CB01898B9A8BAB8BBC8B69897A8917
:102570008B899C8920E030E040E85FE30E942504DD
:1025800088231CF481E0888B91C069897A898B89C2
:102590009C8920E030E04FE753E40E94C503181601
:1025A0000CF07BC06D897E898F89988D20E030E0AA
:1025B0004AE754E40E941903DC01CB018C879D8714
:1025C000AE87BF876C857D858E859F8520E030E056
:1025D0004AEF54E40E941F02DC01CB0188879987EF
:1025E000AA87BB87688579858A859B8520E030E04E
:1025F00040E85FE30E94250488232CF481E090E00A
:102600009F838E833FC0688579858A859B8520E07E
:102610003FEF4FE757E40E94C50318164CF56C8551
:102620007D858E859F8520E030E040E251E40E9468
:102630001F02DC01CB01BC01CD010E944900DC017D
:10264000CB019F838E830FC088EC90E09D838C83A9
:102650008C819D810197F1F79D838C838E819F8171
:1026600001979F838E838E819F81009769F724C095
:10267000688579858A859B850E944900DC01CB01AC
:102680009F838E838E819F819B838A838A819B8196
:102690000197F1F79B838A830FC069897A898B89B7
:1026A0009C890E944900DC01CB01888B8889898341
:1026B00089818A95F1F7898383E066E040E00E9492
:1026C0001508E1960FB6F894DEBF0FBECDBFCF91CF
:1026D000DF910895DF93CF93CDB7DEB7E1970FB6C3
:1026E000F894DEBF0FBECDBF89AB83E064E041E06C
:1026F0000E94150883E065E040E00E94150880E034
:1027000069A90E94180B83E066E041E00E94150869
:1027100080E090E0A0E8BFE38DA79EA7AFA7B8AB8D
:102720006DA57EA58FA598A92BEA3AEA4AE250E466
:102730000E941F02DC01CB0189A79AA7ABA7BCA707
:1027400069A57AA58BA59CA520E030E040E85FE371
:102750000E94250488231CF481E088A791C069A504
:102760007AA58BA59CA520E030E04FE753E40E94BA
:10277000C50318160CF07BC06DA57EA58FA598A982
:1027800020E030E04AE754E40E941903DC01CB0169
:102790008CA39DA3AEA3BFA36CA17DA18EA19FA17D
:1027A00020E030E04AEF54E40E941F02DC01CB013C
:1027B00088A399A3AAA3BBA368A179A18AA19BA17D
:1027C00020E030E040E85FE30E94250488232CF4F9
:1027D00081E090E09F8F8E8F3FC068A179A18AA190
:1027E0009BA120E03FEF4FE757E40E94C503181676
:1027F0004CF56CA17DA18EA19FA120E030E040E2CC
:1028000051E40E941F02DC01CB01BC01CD010E94FA
:102810004900DC01CB019F8F8E8F0FC088EC90E0C8
:102820009D8F8C8F8C8D9D8D0197F1F79D8F8C8F57
:102830008E8D9F8D01979F8F8E8F8E8D9F8D009790
:1028400069F724C068A179A18AA19BA10E944900CF
:10285000DC01CB019F8F8E8F8E8D9F8D9B8F8A8FFA
:102860008A8D9B8D0197F1F79B8F8A8F0FC069A589
:102870007AA58BA59CA50E944900DC01CB0188A705
:1028800088A5898F898D8A95F1F7898F83E066E025
:1028900040E00E94150889A9982F9295907F80E0CA
:1028A000692F0E94180B83E066E041E00E94150842
:1028B00080E090E0A0E8BFE38D8B9E8BAF8BB88F5C
:1028C0006D897E898F89988D2BEA3AEA4AE250E435
:1028D0000E941F02DC01CB01898B9A8BAB8BBC8BD6
:1028E00069897A898B899C8920E030E040E85FE340
:1028F0000E94250488231CF481E0888B91C069899B
:102900007A898B899C8920E030E04FE753E40E946C
:10291000C50318160CF07BC06D897E898F89988D50
:1029200020E030E04AE754E40E941903DC01CB01C7
:102930008C879D87AE87BF876C857D858E859F85BB
:1029400020E030E04AEF54E40E941F02DC01CB019A
:1029500088879987AA87BB87688579858A859B85BB
:1029600020E030E040E85FE30E94250488232CF457
:1029700081E090E09F838E833FC0688579858A855A
:102980009B8520E03FEF4FE757E40E94C5031816F0
:102990004CF56C857D858E859F8520E030E040E29A
:1029A00051E40E941F02DC01CB01BC01CD010E9459
:1029B0004900DC01CB019F838E830FC088EC90E03F
:1029C0009D838C838C819D810197F1F79D838C83FE
:1029D0008E819F8101979F838E838E819F81009737
:1029E00069F724C0688579858A859B850E9449009E
:1029F000DC01CB019F838E838E819F819B838A83A1
:102A00008A819B810197F1F79B838A830FC0698933
:102A10007A898B899C890E944900DC01CB01888BD3
:102A20008889898389818A95F1F7898383E066E0C3
:102A300040E00E941508E1960FB6F894DEBF0FBE85
:102A4000CDBFCF91DF910895DF93CF9300D000D019
:102A5000CDB7DEB789836A838981282F30E03C8334
:102A60002B838B819C81009731F02B813C8121301D
:102A7000310531F009C08A8180580E94B01104C02C
:102A80008A8180540E94B0110F900F900F900F9088
:102A9000CF91DF9108950F931F93DF93CF93CDB71D
:102AA000DEB760970FB6F894DEBF0FBECDBF6D875F
:102AB0007E878F87988B19828D859E85AF85B88993
:102AC000BB239CF48DE20E946A138D859E85AF85A1
:102AD000B889B095A095909581959F4FAF4FBF4F06
:102AE0008D879E87AF87B88B3CC08D859E85AF85CF
:102AF000B8890097A105B105A1F580E30E946A138A
:102B000030C08981082F112707FD10958D859E857E
:102B1000AF85B8892AE030E040E050E0BC01CD014B
:102B20000E94AF2FDC01CB01282F205DCE01029641
:102B3000FC01E00FF11F208389818F5F89838D85E0
:102B40009E85AF85B8892AE030E040E050E0BC01C6
:102B5000CD010E94AF2FDA01C9018D879E87AF8713
:102B6000B88B8D859E85AF85B889181619061A060B
:102B70001B063CF289818150898310C08981282FEE
:102B8000332727FD3095CE010296FC01E20FF31F9B
:102B900080810E946A138981815089838981882379
:102BA0006CF760960FB6F894DEBF0FBECDBFCF9125
:102BB000DF911F910F910895DF93CF9300D00F9273
:102BC000CDB7DEB79B838A8381E089838A819B812D
:102BD000009791F00BC0EA81FB8120818A819B8163
:102BE00001969B838A83822F0E946A13EA81FB816C
:102BF0008081882381F701C0198289810F900F900D
:102C00000F90CF91DF910895DF93CF93CDB7DEB7CB
:102C1000A0970FB6F894DEBF0FBECDBF88A381E0AA
:102C20008F8F88A18B350CF052C188A1863A0CF4A5
:102C30004EC188A188230CF4A5C01E8E9DC08E8D28
:102C4000992787FD9095A92FB92FBC01CD010E942E
:102C50005504DC01CB01BC01CD012AE939E941EB86
:102C600050E40E941F02DC01CB01BC01CD0120E039
:102C700030E84BEB54E40E94F201DC01CB01BC01D3
:102C8000CD010E94B304DC01CB010E94E72E80E05D
:102C900090E0A8E4B2E4898F9A8FAB8FBC8F698DE6
:102CA0007A8D8B8D9C8D20E030E04AEF54E40E94B9
:102CB0001F02DC01CB018D8B9E8BAF8BB88F6D8992
:102CC0007E898F89988D20E030E040E85FE30E94A4
:102CD000250488232CF481E090E09C8B8B8B3FC0F3
:102CE0006D897E898F89988D20E03FEF4FE757E40B
:102CF0000E94C50318164CF5698D7A8D8B8D9C8DBD
:102D000020E030E040E251E40E941F02DC01CB01F0
:102D1000BC01CD010E944900DC01CB019C8B8B8B57
:102D20000FC088EC90E09A8B898B89899A890197EA
:102D3000F1F79A8B898B8B899C8901979C8B8B8B64
:102D40008B899C89009769F714C06D897E898F896A
:102D5000988D0E944900DC01CB019C8B8B8B8B8969
:102D60009C89988B8F878F8598890197F1F7988B2D
:102D70008F878E8D8F5F8E8F9E8D88A189170CF027
:102D80005ECFA6C01D8E9DC08D8D992787FD909525
:102D9000A92FB92FBC01CD010E945504DC01CB0144
:102DA000BC01CD012FE335E342EB50E40E941F024A
:102DB000DC01CB01BC01CD0120E030E84BEB54E459
:102DC0000E94F201DC01CB01BC01CD010E94B304E1
:102DD000DC01CB010E94E72E80E090E0A8E4B2E4A1
:102DE0008B879C87AD87BE876B857C858D859E850F
:102DF00020E030E04AEF54E40E941F02DC01CB01E6
:102E00008F839887A987BA876F81788589859A8506
:102E100020E030E040E85FE30E94250488232CF4A2
:102E200081E090E09E838D833FC06F8178858985A6
:102E30009A8520E03FEF4FE757E40E94C50318163C
:102E40004CF56B857C858D859E8520E030E040E2E9
:102E500051E40E941F02DC01CB01BC01CD010E94A4
:102E60004900DC01CB019E838D830FC088EC90E08C
:102E70009C838B838B819C810197F1F79C838B834F
:102E80008D819E8101979E838D838D819E81009788
:102E900069F714C06F81788589859A850E944900F9
:102EA000DC01CB019E838D838D819E819A838983F2
:102EB00089819A810197F1F79A8389838D8D815059
:102EC0008D8F9D8D88A198170CF05ECF01C01F8E4D
:102ED0008F8DA0960FB6F894DEBF0FBECDBFCF91F9
:102EE000DF910895DF93CF93CDB7DEB7EA970FB6A2
:102EF000F894DEBF0FBECDBFCE01CA960E94450D2D
:102F00008AAD803308F18AAD8A33F0F48AAD0E942D
:102F10006A138AAD805389AF80918A0290918B02A7
:102F20009C01220F331FC901880F991F880F991F19
:102F3000280F391F89AD882F90E0820F931F90933F
:102F40008B0280938A0230C28AAD8D3239F48FEFC2
:102F500080936B028DE20E946A1326C28AAD8D3384
:102F600009F016C280916B028F3F59F480918A025A
:102F700090918B02909581959F4F90938B028093B7
:102F80008A0280918A0290918B028B3591050CF018
:102F90000BC180918A0290918B022FEF863A9207A3
:102FA0000CF402C181E00E94B01180E090E0AFE239
:102FB000B4E48DAB9EABAFABB8AF6DA97EA98FA9C2
:102FC00098AD20E030E04AEF54E40E941F02DC019B
:102FD000CB0189AB9AABABABBCAB69A97AA98BA986
:102FE0009CA920E030E040E85FE30E9425048823AC
:102FF0002CF481E090E098AB8FA73FC069A97AA933
:103000008BA99CA920E03FEF4FE757E40E94C5033E
:1030100018164CF56DA97EA98FA998AD20E030E077
:1030200040E251E40E941F02DC01CB01BC01CD0152
:103030000E944900DC01CB0198AB8FA70FC088EC40
:1030400090E09EA78DA78DA59EA50197F1F79EA75D
:103050008DA78FA598A9019798AB8FA78FA598A941
:10306000009769F714C069A97AA98BA99CA90E9445
:103070004900DC01CB0198AB8FA78FA598A99CA72D
:103080008BA78BA59CA50197F1F79CA78BA780E642
:1030900090E00E94DC1580918A0290918B02AA2711
:1030A00097FDA095BA2FBC01CD010E944B1580E081
:1030B00090E0AFE2B4E48FA398A7A9A7BAA76FA145
:1030C00078A589A59AA520E030E04AEF54E40E9453
:1030D0001F02DC01CB018BA39CA3ADA3BEA36BA1FC
:1030E0007CA18DA19EA120E030E040E85FE30E943A
:1030F000250488232CF481E090E09AA389A33FC0A3
:103100006BA17CA18DA19EA120E03FEF4FE757E48A
:103110000E94C50318164CF56FA178A589A59AA53C
:1031200020E030E040E251E40E941F02DC01CB01CC
:10313000BC01CD010E944900DC01CB019AA389A307
:103140000FC088EC90E098A38F8F8F8D98A1019786
:10315000F1F798A38F8F89A19AA101979AA389A3C8
:1031600089A19AA1009769F714C06BA17CA18DA1D8
:103170009EA10E944900DC01CB019AA389A389A1E9
:103180009AA19E8F8D8F8D8D9E8D0197F1F79E8FC9
:103190008D8F81E061E00E94241580918A029091D8
:1031A0008B020E94041600C181E00E94B01180E0F1
:1031B00090E0AFE2B4E4898F9A8FAB8FBC8F698DBA
:1031C0007A8D8B8D9C8D20E030E04AEF54E40E9494
:1031D0001F02DC01CB018D8B9E8BAF8BB88F6D896D
:1031E0007E898F89988D20E030E040E85FE30E947F
:1031F000250488232CF481E090E09C8B8B8B3FC0CE
:103200006D897E898F89988D20E03FEF4FE757E4E5
:103210000E94C50318164CF5698D7A8D8B8D9C8D97
:1032200020E030E040E251E40E941F02DC01CB01CB
:10323000BC01CD010E944900DC01CB019C8B8B8B32
:103240000FC088EC90E09A8B898B89899A890197C5
:10325000F1F79A8B898B8B899C8901979C8B8B8B3F
:103260008B899C89009769F714C06D897E898F8945
:10327000988D0E944900DC01CB019C8B8B8B8B8944
:103280009C89988B8F878F8598890197F1F7988B08
:103290008F878DE690E00E94DC1580E090E0AFE241
:1032A000B4E48B879C87AD87BE876B857C858D85D5
:1032B0009E8520E030E04AEF54E40E941F02DC01CA
:1032C000CB018F839887A987BA876F817885898595
:1032D0009A8520E030E040E85FE30E9425048823DF
:1032E0002CF481E090E09E838D833FC06F817885D0
:1032F00089859A8520E03FEF4FE757E40E94C50398
:1033000018164CF56B857C858D859E8520E030E018
:1033100040E251E40E941F02DC01CB01BC01CD015F
:103320000E944900DC01CB019E838D830FC088EC95
:1033300090E09C838B838B819C810197F1F79C8328
:103340008B838D819E8101979E838D838D819E814C
:10335000009769F714C06F81788589859A850E94E6
:103360004900DC01CB019E838D838D819E819A83F0
:10337000898389819A810197F1F79A83898381E012
:1033800060E00E9424158AE790E00E94DC150CC0E2
:103390008AAD833649F481E00E94B01110928B020D
:1033A00010928A0210926B02EA960FB6F894DEBF72
:1033B0000FBECDBFCF91DF9108950F931F93DF9381
:1033C000CF93CDB7DEB7C85DD0400FB6F894DEBF5F
:1033D0000FBECDBF87E890E00E94DC15FE01E153EF
:1033E000FF4F80E090E0AFE2B4E480839183A2835A
:1033F000B3838E0105531F4FFE01E153FF4F6081E0
:1034000071818281938120E030E04AEF54E40E9490
:103410001F02DC01CB01F80180839183A283B38377
:10342000FE01E553FF4F608171818281938120E02D
:1034300030E040E85FE30E942504882344F4FE0165
:10344000E753FF4F81E090E09183808364C0FE01E9
:10345000E553FF4F608171818281938120E03FEFCE
:103460004FE757E40E94C50318160CF043C0FE0155
:10347000E153FF4F608171818281938120E030E0D0
:1034800040E251E40E941F02DC01CB018E01075390
:103490001F4FBC01CD010E944900DC01CB01F801A6
:1034A000918380831FC0FE01E953FF4F88EC90E0B9
:1034B00091838083FE01E953FF4F808191810197C1
:1034C000F1F7FE01E953FF4F91838083DE01A7539B
:1034D000BF4FFE01E753FF4F808191810197119605
:1034E0009C938E93FE01E753FF4F8081918100975B
:1034F000D1F627C08E0107531F4FFE01E553FF4F42
:1035000060817181828193810E944900DC01CB013D
:10351000F80191838083DE01AB53BF4FFE01E75377
:10352000FF4F808191818D939C93FE01EB53FF4F60
:10353000808191810197F1F7FE01EB53FF4F918359
:1035400080838CE892E00E94450D80918C028F3F31
:10355000C1F380918C028D33A1F380918C0283366C
:1035600021F080918C020E946A1380918C02282F96
:1035700030E0C952DF4F39832883C75DD040C9523C
:10358000DF4F88819981C75DD0408133910509F46F
:1035900075C3C952DF4FE881F981C75DD040E2337E
:1035A000F1055CF4C952DF4F28813981C75DD040F5
:1035B00020333105C9F00C949824C952DF4F88811B
:1035C0009981C75DD0408233910509F4A0C6C952E4
:1035D000DF4FE881F981C75DD040E336F10511F492
:1035E0000C9421240C94982481E060E00E9424151E
:1035F00086E990E00E94DC15FE01EF53FF4F80E06A
:1036000090E0AAE7B4E480839183A283B3838E0120
:1036100003541F4FFE01EF53FF4F60817181828180
:10362000938120E030E04AEF54E40E941F02DC0165
:10363000CB01F80180839183A283B383FE01E3541D
:10364000FF4F608171818281938120E030E040E80A
:103650005FE30E942504882344F4FE01E554FF4FF4
:1036600081E090E09183808364C0FE01E354FF4FCA
:10367000608171818281938120E03FEF4FE757E4C1
:103680000E94C50318160CF043C0FE01EF53FF4F14
:10369000608171818281938120E030E040E251E4D9
:1036A0000E941F02DC01CB018E0105541F4FBC019B
:1036B000CD010E944900DC01CB01F8019183808398
:1036C0001FC0FE01E754FF4F88EC90E09183808398
:1036D000FE01E754FF4F808191810197F1F7FE01D0
:1036E000E754FF4F91838083DE01A554BF4FFE0155
:1036F000E554FF4F80819181019711969C938E93A1
:10370000FE01E554FF4F808191810097D1F627C0DB
:103710008E0105541F4FFE01E354FF4F60817181FC
:10372000828193810E944900DC01CB01F8019183E1
:103730008083DE01A954BF4FFE01E554FF4F808115
:1037400091818D939C93FE01E954FF4F808191817B
:103750000197F1F7FE01E954FF4F9183808381E0E7
:103760000E94B011FE01EB52FF4F10827FC285EA2A
:1037700090E00E94DC15FE01ED54FF4F80E090E0E8
:10378000AFE2B4E480839183A283B3838E010155B9
:103790001F4FFE01ED54FF4F608171818281938143
:1037A00020E030E04AEF54E40E941F02DC01CB012C
:1037B000F80180839183A283B383FE01E155FF4F1B
:1037C000608171818281938120E030E040E85FE395
:1037D0000E942504882344F4FE01E355FF4F81E055
:1037E00090E09183808364C0FE01E155FF4F6081CA
:1037F00071818281938120E03FEF4FE757E40E947F
:10380000C50318160CF043C0FE01ED54FF4F608154
:1038100071818281938120E030E040E251E40E9496
:103820001F02DC01CB018E0103551F4FBC01CD01EE
:103830000E944900DC01CB01F801918380831FC005
:10384000FE01E555FF4F88EC90E091838083FE01F7
:10385000E555FF4F808191810197F1F7FE01E55514
:10386000FF4F91838083DE01A355BF4FFE01E355D7
:10387000FF4F80819181019711969C938E93FE0159
:10388000E355FF4F808191810097D1F627C08E01CB
:1038900003551F4FFE01E155FF4F60817181828109
:1038A00093810E944900DC01CB01F8019183808360
:1038B000DE01A755BF4FFE01E355FF4F8081918187
:1038C0008D939C93FE01E755FF4F80819181019775
:1038D000F1F7FE01E755FF4F9183808381E060E0BF
:1038E0000E9424150E94272590938E0280938D02BA
:1038F00080918D0290918E02F4E087359F0781F4CC
:1039000085EB90E00E94DC1581E080938F0220918E
:103910008F02CA52DF4F2883C65DD0400C94162513
:1039200081EC90E00E94DC1581E060E00E942415AB
:1039300080ED90E00E94DC15FE01EB55FF4F80E02A
:1039400090E0AFE2B4E480839183A283B3838E01DD
:103950000F551F4FFE01EB55FF4F60817181828132
:10396000938120E030E04AEF54E40E941F02DC0122
:10397000CB01F80180839183A283B383FE01EF55CD
:10398000FF4F608171818281938120E030E040E8C7
:103990005FE30E942504882344F4FE01E156FF4FB3
:1039A00081E090E09183808364C0FE01EF55FF4F7A
:1039B000608171818281938120E03FEF4FE757E47E
:1039C0000E94C50318160CF043C0FE01EB55FF4FD3
:1039D000608171818281938120E030E040E251E496
:1039E0000E941F02DC01CB018E0101561F4FBC015A
:1039F000CD010E944900DC01CB01F8019183808355
:103A00001FC0FE01E356FF4F88EC90E09183808356
:103A1000FE01E356FF4F808191810197F1F7FE018E
:103A2000E356FF4F91838083DE01A156BF4FFE0115
:103A3000E156FF4F80819181019711969C938E935F
:103A4000FE01E156FF4F808191810097D1F627C09A
:103A50008E0101561F4FFE01EF55FF4F60817181AE
:103A6000828193810E944900DC01CB01F80191839E
:103A70008083DE01A556BF4FFE01E156FF4F8081D6
:103A800091818D939C93FE01E556FF4F808191813A
:103A90000197F1F7FE01E556FF4F9183808381E0A6
:103AA0000E94B011FE01EB52FF4F8081823009F07D
:103AB000D4C081E060E00E9424158AED90E00E946D
:103AC000DC1582E067E041E00E94FC0682E067E0EE
:103AD00041E00E941508FE01E956FF4F80E090E0AA
:103AE000AAEFB3E480839183A283B3838E010D5642
:103AF0001F4FFE01E956FF4F6081718182819381E2
:103B000020E030E04AEF54E40E941F02DC01CB01C8
:103B1000F80180839183A283B383FE01ED56FF4FAA
:103B2000608171818281938120E030E040E85FE331
:103B30000E942504882344F4FE01EF56FF4F81E0E4
:103B400090E09183808364C0FE01ED56FF4F608159
:103B500071818281938120E03FEF4FE757E40E941B
:103B6000C50318160CF043C0FE01E956FF4F6081F3
:103B700071818281938120E030E040E251E40E9433
:103B80001F02DC01CB018E010F561F4FBC01CD017E
:103B90000E944900DC01CB01F801918380831FC0A2
:103BA000FE01E157FF4F88EC90E091838083FE0196
:103BB000E157FF4F808191810197F1F7FE01E157B5
:103BC000FF4F91838083DE01AF56BF4FFE01EF565A
:103BD000FF4F80819181019711969C938E93FE01F6
:103BE000EF56FF4F808191810097D1F627C08E015B
:103BF0000F561F4FFE01ED56FF4F6081718182818C
:103C000093810E944900DC01CB01F80191838083FC
:103C1000DE01A357BF4FFE01EF56FF4F8081918118
:103C20008D939C93FE01E357FF4F80819181019713
:103C3000F1F7FE01E357FF4F9183808382E067E055
:103C400040E00E94150810928F02F0918F02CA5234
:103C5000DF4FF883C65DD040E9C6DE01AB52BF4FEF
:103C6000FE01EB52FF4F80818F5F8C93FE01EB5280
:103C7000FF4F8081833008F47ACD63CC81E060E02F
:103C80000E9424158CEE90E00E94DC15FE01E7579F
:103C9000FF4F80E090E0AAE7B4E480839183A283A1
:103CA000B3838E010B571F4FFE01E757FF4F608113
:103CB00071818281938120E030E04AEF54E40E94D8
:103CC0001F02DC01CB01F80180839183A283B383BF
:103CD000FE01EB57FF4F608171818281938120E06B
:103CE00030E040E85FE30E942504882344F4FE01AD
:103CF000ED57FF4F81E090E09183808364C0FE0127
:103D0000EB57FF4F608171818281938120E03FEF0B
:103D10004FE757E40E94C50318160CF043C0FE019C
:103D2000E757FF4F608171818281938120E030E00D
:103D300040E251E40E941F02DC01CB018E010D57CD
:103D40001F4FBC01CD010E944900DC01CB01F801ED
:103D5000918380831FC0FE01EF57FF4F88EC90E0F6
:103D600091838083FE01EF57FF4F808191810197FE
:103D7000F1F7FE01EF57FF4F91838083DE01AD57CE
:103D8000BF4FFE01ED57FF4F808191810197119642
:103D90009C938E93FE01ED57FF4F80819181009798
:103DA000D1F627C08E010D571F4FFE01EB57FF4F75
:103DB00060817181828193810E944900DC01CB0185
:103DC000F80191838083DE01A158BF4FFE01ED57BA
:103DD000FF4F808191818D939C93FE01E158FF4FAD
:103DE000808191810197F1F7FE01E158FF4F9183A6
:103DF000808381E00E94B011FE01EC52FF4F1082DF
:103E00007EC285EA90E00E94DC15FE01E558FF4F76
:103E100080E090E0AFE2B4E480839183A283B38337
:103E20008E0109581F4FFE01E558FF4F60817181D7
:103E30008281938120E030E04AEF54E40E941F0227
:103E4000DC01CB01F80180839183A283B383FE015F
:103E5000E958FF4F608171818281938120E030E0D9
:103E600040E85FE30E942504882344F4FE01EB58F8
:103E7000FF4F81E090E09183808364C0FE01E958A8
:103E8000FF4F608171818281938120E03FEF4FE796
:103E900057E40E94C50318160CF043C0FE01E55814
:103EA000FF4F608171818281938120E030E040E2A8
:103EB00051E40E941F02DC01CB018E010B581F4F01
:103EC000BC01CD010E944900DC01CB01F8019183C6
:103ED00080831FC0FE01ED58FF4F88EC90E0918376
:103EE0008083FE01ED58FF4F808191810197F1F7AA
:103EF000FE01ED58FF4F91838083DE01AB58BF4F29
:103F0000FE01EB58FF4F80819181019711969C93A0
:103F10008E93FE01EB58FF4F808191810097D1F67F
:103F200027C08E010B581F4FFE01E958FF4F6081DB
:103F30007181828193810E944900DC01CB01F801EB
:103F400091838083DE01AF58BF4FFE01EB58FF4FD6
:103F5000808191818D939C93FE01EF58FF4F80816A
:103F600091810197F1F7FE01EF58FF4F9183808314
:103F700081E060E00E9424150E94272590938E0224
:103F800080938D0280918D0290918E02F8E08E3A9E
:103F90009F0779F48BEF90E00E94DC1581E080931D
:103FA0008F0220918F02CA52DF4F2883C65DD04016
:103FB0003DC581EC90E00E94DC1581E060E00E944C
:103FC000241580ED90E00E94DC15FE01E359FF4FBF
:103FD00080E090E0AFE2B4E480839183A283B38376
:103FE0008E0107591F4FFE01E359FF4F6081718118
:103FF0008281938120E030E04AEF54E40E941F0266
:10400000DC01CB01F80180839183A283B383FE019D
:10401000E759FF4F608171818281938120E030E018
:1040200040E85FE30E942504882344F4FE01E95937
:10403000FF4F81E090E09183808364C0FE01E759E7
:10404000FF4F608171818281938120E03FEF4FE7D4
:1040500057E40E94C50318160CF043C0FE01E35953
:10406000FF4F608171818281938120E030E040E2E6
:1040700051E40E941F02DC01CB018E0109591F4F40
:10408000BC01CD010E944900DC01CB01F801918304
:1040900080831FC0FE01EB59FF4F88EC90E09183B5
:1040A0008083FE01EB59FF4F808191810197F1F7E9
:1040B000FE01EB59FF4F91838083DE01A959BF4F69
:1040C000FE01E959FF4F80819181019711969C93E0
:1040D0008E93FE01E959FF4F808191810097D1F6BF
:1040E00027C08E0109591F4FFE01E759FF4F60811C
:1040F0007181828193810E944900DC01CB01F8012A
:1041000091838083DE01AD59BF4FFE01E959FF4F16
:10411000808191818D939C93FE01ED59FF4F8081A9
:1041200091810197F1F7FE01ED59FF4F9183808353
:1041300081E00E94B011FE01EC52FF4F808182307D
:1041400009F0D4C081E060E00E9424158AED90E07F
:104150000E94DC1582E067E041E00E94FC0682E0FC
:1041600067E041E00E941508FE01E15AFF4F80E040
:1041700090E0AAEFB3E480839183A283B3838E019E
:10418000055A1F4FFE01E15AFF4F60817181828104
:10419000938120E030E04AEF54E40E941F02DC01EA
:1041A000CB01F80180839183A283B383FE01E55A9A
:1041B000FF4F608171818281938120E030E040E88F
:1041C0005FE30E942504882344F4FE01E75AFF4F71
:1041D00081E090E09183808364C0FE01E55AFF4F47
:1041E000608171818281938120E03FEF4FE757E446
:1041F0000E94C50318160CF043C0FE01E15AFF4FA0
:10420000608171818281938120E030E040E251E45D
:104210000E941F02DC01CB018E01075A1F4FBC0117
:10422000CD010E944900DC01CB01F801918380831C
:104230001FC0FE01E95AFF4F88EC90E09183808314
:10424000FE01E95AFF4F808191810197F1F7FE014C
:10425000E95AFF4F91838083DE01A75ABF4FFE01C9
:10426000E75AFF4F80819181019711969C938E931D
:10427000FE01E75AFF4F808191810097D1F627C058
:104280008E01075A1F4FFE01E55AFF4F6081718171
:10429000828193810E944900DC01CB01F801918366
:1042A0008083DE01AB5ABF4FFE01E75AFF4F80818A
:1042B00091818D939C93FE01EB5AFF4F80819181F8
:1042C0000197F1F7FE01EB5AFF4F9183808382E063
:1042D00067E040E00E94150810928F02F0918F0273
:1042E000CA52DF4FF883C65DD040A0C3DE01AC5296
:1042F000BF4FFE01EC52FF4F80818F5F8C93FE0118
:10430000EC52FF4F8081833008F47BCD1AC981E0E5
:1043100060E00E94241588E091E00E94DC15FE0117
:10432000EF5AFF4F80E090E0AAE7B4E480839183E6
:10433000A283B3838E01035B1F4FFE01EF5AFF4F31
:10434000608171818281938120E030E04AEF54E402
:104350000E941F02DC01CB01F80180839183A283BC
:10436000B383FE01E35BFF4F6081718182819381A2
:1043700020E030E040E85FE30E942504882344F415
:10438000FE01E55BFF4F81E090E09183808364C094
:10439000FE01E35BFF4F608171818281938120E0A8
:1043A0003FEF4FE757E40E94C50318160CF043C0D7
:1043B000FE01EF5AFF4F608171818281938120E07D
:1043C00030E040E251E40E941F02DC01CB018E018B
:1043D000055B1F4FBC01CD010E944900DC01CB01F0
:1043E000F801918380831FC0FE01E75BFF4F88ECDB
:1043F00090E091838083FE01E75BFF4F8081918194
:104400000197F1F7FE01E75BFF4F91838083DE01A7
:10441000A55BBF4FFE01E55BFF4F80819181019756
:1044200011969C938E93FE01E55BFF4F80819181F5
:104430000097D1F627C08E01055B1F4FFE01E35B9D
:10444000FF4F60817181828193810E944900DC016C
:10445000CB01F80191838083DE01A95BBF4FFE0190
:10446000E55BFF4F808191818D939C93FE01E95B19
:10447000FF4F808191810197F1F7FE01E95BFF4FCA
:104480009183808381E00E94B011FE01ED52FF4FC5
:104490001082CEC185EA90E00E94DC15FE01ED5B42
:1044A000FF4F80E090E0AFE2B4E480839183A28389
:1044B000B3838E01015C1F4FFE01ED5BFF4F6081F6
:1044C00071818281938120E030E04AEF54E40E94C0
:1044D0001F02DC01CB01F80180839183A283B383A7
:1044E000FE01FF96608171818281938120E030E03E
:1044F00040E85FE30E94250488232CF481E090E0EB
:104500009EAF8DAF46C0FE01FF96608171818281B2
:10451000938120E03FEF4FE757E40E94C503181650
:1045200064F5FE01ED5BFF4F6081718182819381B3
:1045300020E030E040E251E40E941F02DC01CB01A8
:10454000BC01CD010E944900DC01CB019EAF8DAFC3
:104550000FC088EC90E09CAF8BAF8BAD9CAD01970A
:10456000F1F79CAF8BAF8DAD9EAD01979EAF8DAF38
:104570008DAD9EAD009769F716C0FE01FF96608174
:104580007181828193810E944900DC01CB019EAF41
:104590008DAF8DAD9EAD9AAF89AF89AD9AAD0197C4
:1045A000F1F79AAF89AF81E060E00E9424150E9484
:1045B000272590938E0280938D0280918D02909199
:1045C0008E02FDE085309F0779F487E191E00E943B
:1045D000DC1581E080938F0220918F02CA52DF4F59
:1045E0002883C65DD04022C281EC90E00E94DC1599
:1045F00081E060E00E94241580ED90E00E94DC15CF
:1046000080E090E0AFE2B4E48DAB9EABAFABB8AF6F
:104610006DA97EA98FA998AD20E030E04AEF54E45F
:104620000E941F02DC01CB0189AB9AABABABBCABE8
:1046300069A97AA98BA99CA920E030E040E85FE352
:104640000E94250488232CF481E090E098AB8FA78A
:104650003FC069A97AA98BA99CA920E03FEF4FE749
:1046600057E40E94C50318164CF56DA97EA98FA9C1
:1046700098AD20E030E040E251E40E941F02DC01EE
:10468000CB01BC01CD010E944900DC01CB0198ABFC
:104690008FA70FC088EC90E09EA78DA78DA59EA543
:1046A0000197F1F79EA78DA78FA598A9019798ABC1
:1046B0008FA78FA598A9009769F714C069A97AA94F
:1046C0008BA99CA90E944900DC01CB0198AB8FA764
:1046D0008FA598A99CA78BA78BA59CA50197F1F7FF
:1046E0009CA78BA781E00E94B011FE01ED52FF4F05
:1046F0008081823009F093C081E060E00E9424153F
:104700008AED90E00E94DC1582E067E041E00E94C3
:10471000FC0682E067E041E00E94150880E090E03E
:10472000AAEFB3E48FA398A7A9A7BAA76FA178A50A
:1047300089A59AA520E030E04AEF54E40E941F02C8
:10474000DC01CB018BA39CA3ADA3BEA36BA17CA179
:104750008DA19EA120E030E040E85FE30E942504A7
:1047600088232CF481E090E09AA389A33FC06BA139
:104770007CA18DA19EA120E03FEF4FE757E40E946E
:10478000C50318164CF56FA178A589A59AA520E058
:1047900030E040E251E40E941F02DC01CB01BC0189
:1047A000CD010E944900DC01CB019AA389A30FC06F
:1047B00088EC90E098A38F8F8F8D98A10197F1F7E7
:1047C00098A38F8F89A19AA101979AA389A389A100
:1047D0009AA1009769F714C06BA17CA18DA19EA13D
:1047E0000E944900DC01CB019AA389A389A19AA167
:1047F0009E8F8D8F8D8D9E8D0197F1F79E8F8D8F62
:1048000082E067E040E00E94150810928F0230912C
:104810008F02CA52DF4F3883C65DD04007C1DE0128
:10482000AD52BF4FFE01ED52FF4F80818F5F8C93E1
:10483000FE01ED52FF4F8081833008F42BCE0C94A3
:10484000A11A80E090E0A8E4B2E4898F9A8FAB8F40
:10485000BC8F698D7A8D8B8D9C8D20E030E04AEF86
:1048600054E40E941F02DC01CB018D8B9E8BAF8B29
:10487000B88F6D897E898F89988D20E030E040E87F
:104880005FE30E94250488232CF481E090E09C8B58
:104890008B8B3FC06D897E898F89988D20E03FEF9B
:1048A0004FE757E40E94C50318164CF5698D7A8DC1
:1048B0008B8D9C8D20E030E040E251E40E941F028D
:1048C000DC01CB01BC01CD010E944900DC01CB0120
:1048D0009C8B8B8B0FC088EC90E09A8B898B89899D
:1048E0009A890197F1F79A8B898B8B899C8901971B
:1048F0009C8B8B8B8B899C89009769F714C06D8981
:104900007E898F89988D0E944900DC01CB019C8BA8
:104910008B8B8B899C89988B8F878F859889019742
:10492000F1F7988B8F8781E00E94B0110C94A11A47
:1049300081E00E94B01183E291E00E94DC1580E0EA
:1049400090E0AFE2B4E48B879C87AD87BE876B8530
:104950007C858D859E8520E030E04AEF54E40E94FE
:104960001F02DC01CB018F839887A987BA876F81EB
:10497000788589859A8520E030E040E85FE30E94F1
:10498000250488232CF481E090E09E838D833FC032
:104990006F81788589859A8520E03FEF4FE757E45E
:1049A0000E94C50318164CF56B857C858D859E8508
:1049B00020E030E040E251E40E941F02DC01CB0124
:1049C000BC01CD010E944900DC01CB019E838D8397
:1049D0000FC088EC90E09C838B838B819C81019736
:1049E000F1F79C838B838D819E8101979E838D83BC
:1049F0008D819E81009769F714C06F8178858985C4
:104A00009A850E944900DC01CB019E838D838D81B4
:104A10009E819A83898389819A810197F1F79A838C
:104A2000898381E00E94B0110C94EA19CA52DF4FC9
:104A30008881C65DD040C852DF4F0FB6F894DEBF04
:104A40000FBECDBFCF91DF911F910F910895DF93DE
:104A5000CF9300D00F92CDB7DEB71B821A8280E9C8
:104A600092E00E94450D809190028033F8F0809191
:104A700090028A33D8F48AE20E946A1380919002ED
:104A8000805389838A819B819C01220F331FC90136
:104A9000880F991F880F991F280F391F8981882F28
:104AA00090E0820F931F9B838A83D9CF80919002DD
:104AB0008D3359F481E00E94B0118A819B810F905F
:104AC0000F900F90CF91DF910895809190028336DF
:104AD00031F681E00E94B0111B821A82C0CFDF93B1
:104AE000CF93CDB7DEB760970FB6F894DEBF0FBE99
:104AF000CDBF1F86188ACE0140960E94450D81E0E9
:104B000060E00E94241580E391E00E94DC1580E0C3
:104B100090E0AFE2B4E48B879C87AD87BE876B855E
:104B20007C858D859E8520E030E04AEF54E40E942C
:104B30001F02DC01CB018F839887A987BA876F8119
:104B4000788589859A8520E030E040E85FE30E941F
:104B5000250488232CF481E090E09E838D833FC060
:104B60006F81788589859A8520E03FEF4FE757E48C
:104B70000E94C50318164CF56B857C858D859E8536
:104B800020E030E040E251E40E941F02DC01CB0152
:104B9000BC01CD010E944900DC01CB019E838D83C5
:104BA0000FC088EC90E09C838B838B819C81019764
:104BB000F1F79C838B838D819E8101979E838D83EA
:104BC0008D819E81009769F714C06F8178858985F2
:104BD0009A850E944900DC01CB019E838D838D81E3
:104BE0009E819A83898389819A810197F1F79A83BB
:104BF000898381E00E94B0118CE391E00E94DC1572
:104C000081E060E00E94241580E591E00E94DC15BF
:104C10008889823358F48889873340F48889882FBB
:104C200090E08133910511F40E9472178F85609690
:104C30000FB6F894DEBF0FBECDBFCF91DF910895C0
:104C4000EF92FF920F931F93DF93CF93CDB7DEB711
:104C5000A1970FB6F894DEBF0FBECDBF0E949D0E88
:104C60000E94D40E8BEF90E00E94DC1580E090E073
:104C7000AAEFB3E48B879C87AD87BE876B857C8565
:104C80008D859E8520E030E04AEF54E40E941F02AB
:104C9000DC01CB018F839887A987BA876F817885DC
:104CA00089859A8520E030E040E85FE30E94250492
:104CB00088232CF481E090E09E838D833FC06F8138
:104CC000788589859A8520E03FEF4FE757E40E9479
:104CD000C50318164CF56B857C858D859E8520E077
:104CE00030E040E251E40E941F02DC01CB01BC0134
:104CF000CD010E944900DC01CB019E838D830FC052
:104D000088EC90E09C838B838B819C810197F1F7E9
:104D10009C838B838D819E8101979E838D838D8162
:104D20009E81009769F714C06F81788589859A857F
:104D30000E944900DC01CB019E838D838D819E8181
:104D40009A83898389819A810197F1F79A8389836C
:104D500081E00E94B01180E090E0A0E0B0E08B8F95
:104D60009C8FAD8FBE8F80E090E0A0E0B0E08F8B95
:104D7000988FA98FBA8F80E090E0A0E0B0E08B8B95
:104D80009C8BAD8BBE8B1A8A198A188ACE014F96DE
:104D90000E94450D8F8D8F3FC9F38F8D282F30E0F6
:104DA00039A328A388A199A18633910509F468C382
:104DB00028A139A1273331050CF04FC088A199A152
:104DC0008133910509F40EC128A139A1223331059F
:104DD0005CF588A199A18D32910509F468C528A1D7
:104DE00039A12E3231059CF488A199A18A3291050E
:104DF00009F43DC528A139A12B32310509F472C54A
:104E000088A199A18532910509F464C5EBC628A152
:104E100039A12F32310509F432C588A199A1803317
:104E200091050CF069C080C528A139A12333310553
:104E300009F4C4C188A199A1833391050CF448C138
:104E400028A139A12433310509F42EC288A199A1E2
:104E50008533910509F49EC2C5C628A139A12D3418
:104E6000310509F42CC588A199A18E3491052CF542
:104E700028A139A12933310509F464C488A199A175
:104E80008A3391056CF428A139A12733310509F43F
:104E90006DC388A199A18833910509F4DDC3A2C629
:104EA00028A139A12D33310509F44DC588A199A157
:104EB0008934910509F4EBC495C628A139A12035A0
:104EC000310509F436C588A199A1813591053CF4D5
:104ED00028A139A12E34310509F40CC583C688A157
:104EE00099A18335910509F40FC528A139A123366D
:104EF000310509F49DC476C68F8D0E946A138A8994
:104F0000882361F08F85853049F08F85883031F0B6
:104F10008F85893019F08F858A3081F56B8D7C8D76
:104F20008D8D9E8D20E030E040E251E40E941F0212
:104F3000DC01CB017C018D018F8D882F90E0AA27A9
:104F400097FDA095BA2FBC01CD010E9455049B018D
:104F5000AC01C801B7010E94F201DC01CB01BC0128
:104F6000CD0120E030E040E452E40E94C101DC01C8
:104F7000CB018B8F9C8FAD8FBE8F08CF8A898130FC
:104F800009F004CF6F89788D898D9A8D20E030E00B
:104F900040E251E40E941F02DC01CB017C018D0143
:104FA0008F8D882F90E0AA2797FDA095BA2FBC017E
:104FB000CD010E9455049B01AC01C801B7010E94BC
:104FC000F201DC01CB01BC01CD0120E030E040E486
:104FD00052E40E94C101DC01CB018F8B988FA98F15
:104FE000BA8FD4CE8F8D0E946A138A89882361F08C
:104FF0008F85853049F08F85883031F08F858930F5
:1050000019F08F858A3081F56B8D7C8D8D8D9E8D0D
:1050100020E030E040E251E40E941F02DC01CB01BD
:105020007C018D018F8D882F90E0AA2797FDA09598
:10503000BA2FBC01CD010E9455049B01AC01C801EF
:10504000B7010E94F201DC01CB01BC01CD0120E0DF
:1050500030E040E452E40E94C101DC01CB018B8FBF
:105060009C8FAD8FBE8F92CE8A89813009F08ECE13
:105070006F89788D898D9A8D20E030E040E251E48F
:105080000E941F02DC01CB017C018D018F8D882FD6
:1050900090E0AA2797FDA095BA2FBC01CD010E94F0
:1050A00055049B01AC01C801B7010E94F201DC016B
:1050B000CB01BC01CD0120E030E040E452E40E948D
:1050C000C101DC01CB018F8B988FA98FBA8F5ECE87
:1050D0008F8D0E946A138A89882361F08F858530BD
:1050E00049F08F85883031F08F85893019F08F85B0
:1050F0008A3081F56B8D7C8D8D8D9E8D20E030E02A
:1051000040E251E40E941F02DC01CB017C018D01D1
:105110008F8D882F90E0AA2797FDA095BA2FBC010C
:10512000CD010E9455049B01AC01C801B7010E944A
:10513000F201DC01CB01BC01CD0120E030E040E414
:1051400052E40E94C101DC01CB018B8F9C8FAD8F9B
:10515000BE8F1CCE8A89813009F018CE6F89788D78
:10516000898D9A8D20E030E040E251E40E941F02D8
:10517000DC01CB017C018D018F8D882F90E0AA2767
:1051800097FDA095BA2FBC01CD010E9455049B014B
:10519000AC01C801B7010E94F201DC01CB01BC01E6
:1051A000CD0120E030E040E452E40E94C101DC0186
:1051B000CB018F8B988FA98FBA8FE8CD8F8D0E94EE
:1051C0006A138A89882361F08F85853049F08F853D
:1051D000883031F08F85893019F08F858A3081F5DC
:1051E0006B8D7C8D8D8D9E8D20E030E040E251E412
:1051F0000E941F02DC01CB017C018D018F8D882F65
:1052000090E0AA2797FDA095BA2FBC01CD010E947E
:1052100055049B01AC01C801B7010E94F201DC01F9
:10522000CB01BC01CD0120E030E040E452E40E941B
:10523000C101DC01CB018B8F9C8FAD8FBE8FA6CDC2
:105240008A89813009F0A2CD6F89788D898D9A8DF8
:1052500020E030E040E251E40E941F02DC01CB017B
:105260007C018D018F8D882F90E0AA2797FDA09556
:10527000BA2FBC01CD010E9455049B01AC01C801AD
:10528000B7010E94F201DC01CB01BC01CD0120E09D
:1052900030E040E452E40E94C101DC01CB018F8B7D
:1052A000988FA98FBA8F72CD8F8D0E946A138A89C9
:1052B000882361F08F85853049F08F85883031F003
:1052C0008F85893019F08F858A3081F56B8D7C8DC3
:1052D0008D8D9E8D20E030E040E251E40E941F025F
:1052E000DC01CB017C018D018F8D882F90E0AA27F6
:1052F00097FDA095BA2FBC01CD010E9455049B01DA
:10530000AC01C801B7010E94F201DC01CB01BC0174
:10531000CD0120E030E040E452E40E94C101DC0114
:10532000CB018B8F9C8FAD8FBE8F30CD8A89813022
:1053300009F02CCD6F89788D898D9A8D20E030E031
:1053400040E251E40E941F02DC01CB017C018D018F
:105350008F8D882F90E0AA2797FDA095BA2FBC01CA
:10536000CD010E9455049B01AC01C801B7010E9408
:10537000F201DC01CB01BC01CD0120E030E040E4D2
:1053800052E40E94C101DC01CB018F8B988FA98F61
:10539000BA8FFCCC8F8D0E946A138A89882361F0B2
:1053A0008F85853049F08F85883031F08F85893041
:1053B00019F08F858A3081F56B8D7C8D8D8D9E8D5A
:1053C00020E030E040E251E40E941F02DC01CB010A
:1053D0007C018D018F8D882F90E0AA2797FDA095E5
:1053E000BA2FBC01CD010E9455049B01AC01C8013C
:1053F000B7010E94F201DC01CB01BC01CD0120E02C
:1054000030E040E452E40E94C101DC01CB018B8F0B
:105410009C8FAD8FBE8FBACC8A89813009F0B6CC13
:105420006F89788D898D9A8D20E030E040E251E4DB
:105430000E941F02DC01CB017C018D018F8D882F22
:1054400090E0AA2797FDA095BA2FBC01CD010E943C
:1054500055049B01AC01C801B7010E94F201DC01B7
:10546000CB01BC01CD0120E030E040E452E40E94D9
:10547000C101DC01CB018F8B988FA98FBA8F86CCAD
:105480008F8D0E946A138A89882361F08F85853009
:1054900049F08F85883031F08F85893019F08F85FC
:1054A0008A3081F56B8D7C8D8D8D9E8D20E030E076
:1054B00040E251E40E941F02DC01CB017C018D011E
:1054C0008F8D882F90E0AA2797FDA095BA2FBC0159
:1054D000CD010E9455049B01AC01C801B7010E9497
:1054E000F201DC01CB01BC01CD0120E030E040E461
:1054F00052E40E94C101DC01CB018B8F9C8FAD8FE8
:10550000BE8F44CC8A89813009F040CC6F89788D78
:10551000898D9A8D20E030E040E251E40E941F0224
:10552000DC01CB017C018D018F8D882F90E0AA27B3
:1055300097FDA095BA2FBC01CD010E9455049B0197
:10554000AC01C801B7010E94F201DC01CB01BC0132
:10555000CD0120E030E040E452E40E94C101DC01D2
:10556000CB018F8B988FA98FBA8F10CC8F8D0E9413
:105570006A138A89882361F08F85853049F08F8589
:10558000883031F08F85893019F08F858A3081F528
:105590006B8D7C8D8D8D9E8D20E030E040E251E45E
:1055A0000E941F02DC01CB017C018D018F8D882FB1
:1055B00090E0AA2797FDA095BA2FBC01CD010E94CB
:1055C00055049B01AC01C801B7010E94F201DC0146
:1055D000CB01BC01CD0120E030E040E452E40E9468
:1055E000C101DC01CB018B8F9C8FAD8FBE8FCECBE9
:1055F0008A89813009F0CACB6F89788D898D9A8D1F
:1056000020E030E040E251E40E941F02DC01CB01C7
:105610007C018D018F8D882F90E0AA2797FDA095A2
:10562000BA2FBC01CD010E9455049B01AC01C801F9
:10563000B7010E94F201DC01CB01BC01CD0120E0E9
:1056400030E040E452E40E94C101DC01CB018F8BC9
:10565000988FA98FBA8F9ACB8F8D0E946A138A89EF
:10566000882361F08F85853049F08F85883031F04F
:105670008F85893019F08F858A3081F56B8D7C8D0F
:105680008D8D9E8D20E030E040E251E40E941F02AB
:10569000DC01CB017C018D018F8D882F90E0AA2742
:1056A00097FDA095BA2FBC01CD010E9455049B0126
:1056B000AC01C801B7010E94F201DC01CB01BC01C1
:1056C000CD0120E030E040E452E40E94C101DC0161
:1056D000CB018B8F9C8FAD8FBE8F58CB8A89813049
:1056E00009F054CB6F89788D898D9A8D20E030E058
:1056F00040E251E40E941F02DC01CB017C018D01DC
:105700008F8D882F90E0AA2797FDA095BA2FBC0116
:10571000CD010E9455049B01AC01C801B7010E9454
:10572000F201DC01CB01BC01CD0120E030E040E41E
:1057300052E40E94C101DC01CB018F8B988FA98FAD
:10574000BA8F24CB8F8D0E946A138A89882361F0D7
:105750008F85853049F08F85883031F08F8589308D
:1057600019F08F858A3081F56B8D7C8D8D8D9E8DA6
:1057700020E030E040E251E40E941F02DC01CB0156
:105780007C018D018F8D882F90E0AA2797FDA09531
:10579000BA2FBC01CD010E9455049B01AC01C80188
:1057A000B7010E94F201DC01CB01BC01CD0120E078
:1057B00030E040E452E40E94C101DC01CB018B8F58
:1057C0009C8FAD8FBE8FE2CA8A89813009F0DECA14
:1057D0006F89788D898D9A8D20E030E040E251E428
:1057E0000E941F02DC01CB017C018D018F8D882F6F
:1057F00090E0AA2797FDA095BA2FBC01CD010E9489
:1058000055049B01AC01C801B7010E94F201DC0103
:10581000CB01BC01CD0120E030E040E452E40E9425
:10582000C101DC01CB018F8B988FA98FBA8FAECAD3
:1058300081E00E94B01180E090E0A0E0B0E08B8FAA
:105840009C8FAD8FBE8F80E090E0A0E0B0E08F8BAA
:10585000988FA98FBA8F80E090E0A0E0B0E08B8BAA
:105860009C8BAD8BBE8B1A8A198A188A8FCA81E0ED
:105870008F878F8D0E946A1381E08A8B87CA82E0AE
:105880008F878F8D0E946A1381E08A8B7FCA8DE299
:105890000E946A138A89882319F481E0898B76CA69
:1058A0008A89813009F072CA82E0888B6FCA84E0ED
:1058B0008F878F8D0E946A1381E08A8B67CA85E08B
:1058C0008F878DE40E946A1383E40E946A1381E04B
:1058D0008A8B5CCA86E08F878F8D0E946A1381E075
:1058E0008A8B54CA87E08F878F8D0E946A1381E06C
:1058F0008A8B4CCA88E08F878DE40E946A138DE200
:105900000E946A131A8A42CA89E08F8783E50E943F
:105910006A1381E50E946A1382E50E946A1384E596
:105920000E946A131A8A32CA8F8D0E946A131A8AD9
:105930002DCA8AE08F878DE40E946A138BE20E9451
:105940006A131A8A23CA8F8D0E946A13898981304B
:1059500049F48B8D9C8DAD8DBE8DB0588B8F9C8FF7
:10596000AD8FBE8F8889823049F48F89988DA98D3B
:10597000BA8DB0588F8B988FA98FBA8F8F85813051
:10598000E9F46B8D7C8D8D8D9E8D2F89388D498DA1
:105990005A8D0E941F02DC01CB018B8B9C8BAD8B3F
:1059A000BE8B6B897C898D899E890E94B304DC0142
:1059B000CB01BC01CD010E944B15E8C98F85823017
:1059C000E9F46B8D7C8D8D8D9E8D2F89388D498D61
:1059D0005A8D0E941903DC01CB018B8B9C8BAD8B04
:1059E000BE8B6B897C898D899E890E94B304DC0102
:1059F000CB01BC01CD010E944B15C8C98F858430F5
:105A0000E9F46B8D7C8D8D8D9E8D2F89388D498D20
:105A10005A8D0E94C101DC01CB018B8B9C8BAD8B1D
:105A2000BE8B6B897C898D899E890E94B304DC01C1
:105A3000CB01BC01CD010E944B15A8C98F858530D3
:105A400069F46B897C898D899E890E94B304DC018D
:105A5000CB01BC01CD010E944B1598C98F858630C2
:105A600009F041C06B8D7C8D8D8D9E8D2F89388D79
:105A7000498D5A8D0E941903DC01CB01BC01CD0177
:105A80000E94B304DC01CB01AA2797FDA095BA2F91
:105A9000BC01CD010E945504DC01CB01BC01CD014C
:105AA0002F89388D498D5A8D0E941F02DC01CB0150
:105AB0009C01AD016B8D7C8D8D8D9E8D0E94C101F1
:105AC000DC01CB018B8B9C8BAD8BBE8B6B897C8976
:105AD0008D899E890E94B304DC01CB01BC01CD01FC
