:100000000C942A000C9447000C9447000C94470071
:100010000C9447000C9447000C9447000C94470044
:100020000C9447000C9447000C9447000C94C13288
:100030000C9447000C9447000C9447000C94470024
:100040000C9447000C9447000C9447000C94470014
:100050000C94470011241FBECFE5D8E0DEBFCDBF12
:1000600013E0A0E6B0E0EEEDFCE602C005900D92D4
:10007000A439B107D9F713E0A4E9B3E001C01D9298
:10008000A13AB107E1F70E944F350C946D360C94FC
:100090000000EF92FF920F931F937B018C0120E0F1
:1000A00030E040E05FE40E94F50388238CF0C80153
:1000B000B70120E030E040E05FE40E94C1010E940F
:1000C000B3049B01AC01205030404040504806C072
:1000D000C801B7010E94B3049B01AC01B901CA0178
:1000E0001F910F91FF90EF900895A0E0B0E0EBE733
:1000F000F0E00C943636DC012B01FA019C91923031
:1001000008F439C1EB018881823008F433C194309E
:1001100069F4843009F02FC111969C91119789815F
:10012000981709F428C1ABE7B2E025C1843009F47F
:1001300021C18230A9F4923009F01DC19A01AD01AC
:1001400088E0EA010990AE01E90109929E0181501F
:10015000C1F7E201898111969C918923818308C1AD
:10016000923009F407C112962D903C901397EB0141
:100170008A819B811496AD90BD90CD90DC901797AD
:10018000EC80FD800E811F819101281B390BB90184
:1001900037FF04C066277727621B730B6032710537
:1001A0000CF061C0121613066CF537014801062EDB
:1001B00004C096948794779467940A94D2F721E0C8
:1001C00030E040E050E004C0220F331F441F551FB1
:1001D0006A95D2F721503040404050402E213F21B7
:1001E00040235123211531054105510521F021E01E
:1001F00030E040E050E079018A01E628F72808293C
:1002000019293CC0232BD1F1260E371E350146019A
:10021000062E04C096948794779467940A94D2F734
:1002200021E030E040E050E004C0220F331F441FC3
:10023000551F6A95D2F721503040404050402A2146
:100240003B214C215D21211531054105510521F04E
:1002500021E030E040E050E059016A01A628B728CB
:10026000C828D9280BC0821593052CF01C01AA249C
:10027000BB24650103C0EE24FF24870111969C91E5
:10028000D20111968C91981709F445C0992339F041
:10029000A80197012A193B094C095D0906C0A6016E
:1002A00095012E193F09400B510B57FD08C01182D3
:1002B0003382228224833583468357831DC081E0A5
:1002C00081833382228288279927DC01821B930B4A
:1002D000A40BB50B84839583A683B7830DC0220F2F
:1002E000331F441F551F24833583468357838281E0
:1002F000938101979383828324813581468157813D
:10030000DA01C9010197A109B1098F5F9F4FAF4F72
:10031000BF4328F30BC0918333822282EA0CFB1C7B
:100320000C1D1D1DE482F5820683178383E0808304
:10033000248135814681578157FF1AC0C901AA27F8
:1003400097FDA095BA2F81709070A070B0705695EF
:10035000479537952795822B932BA42BB52B848318
:100360009583A683B7838281938101969383828349
:10037000DF0101C0D201CD01CDB7DEB7E2E10C94BF
:100380005236A0E2B0E0E7ECF1E00C94423669832B
:100390007A838B839C832D833E834F835887E9E048
:1003A000EE2EF12CEC0EFD1ECE010196B7010E943F
:1003B0002B068E010F5E1F4FCE010596B8010E94DD
:1003C0002B068A8991E089278A8BC701B801AE0183
:1003D000475E5F4F0E9475000E945605A096E6E0BA
:1003E0000C945E36A0E2B0E0E8EFF1E00C94423607
:1003F00069837A838B839C832D833E834F835887C5
:10040000F9E0EF2EF12CEC0EFD1ECE010196B701A6
:100410000E942B068E010F5E1F4FCE010596B8017C
:100420000E942B06C701B801AE01475E5F4F0E94D4
:1004300075000E945605A096E6E00C945E36A0E298
:10044000B0E0E5E2F2E00C94363669837A838B8380
:100450009C832D833E834F835887CE010196BE0136
:10046000675F7F4F0E942B06CE010596BE016F5E2F
:100470007F4F0E942B069985923088F089898230BF
:10048000C8F0943019F4823051F404C0843029F457
:10049000923081F48BE792E0C6C0923049F420E0BC
:1004A0009A858A89981321E02A87CE010996BBC0D4
:1004B000823049F420E09A858A89981321E02A8BBA
:1004C000CE014196B0C02D843E844F8458886D88FB
:1004D0007E888F88988CEE24FF248701AA24BB2471
:1004E000650140E050E060E070E0E0E0F0E0C10174
:1004F00081709070892BE9F0E60CF71C081D191D1E
:100500009A01AB012A0D3B1D4C1D5D1D80E090E062
:10051000A0E0B0E0E614F7040805190520F481E036
:1005200090E0A0E0B0E0BA01A901480F591F6A1F8E
:100530007B1FAA0CBB1CCC1CDD1C97FE08C081E0F5
:1005400090E0A0E0B0E0A82AB92ACA2ADB2A3196B6
:10055000E032F10549F0660C771C881C991C569412
:10056000479437942794C3CFFA85EA892B893C892D
:100570008B859C85280F391F2E5F3F4F17C0CA01FE
:1005800081709070892B61F016950795F794E79428
:1005900080E090E0A0E0B0E8E82AF92A0A2B1B2BC3
:1005A00076956795579547952F5F3F4F77FDE7CF36
:1005B0000CC0440F551F661F771F17FD4160EE0CDE
:1005C000FF1C001F111F21503040403090E05907A0
:1005D00090E0690790E4790760F32B8F3C8FDB0193
:1005E000CA018F779070A070B07080349105A1051A
:1005F000B10561F447FD0AC0E114F10401051105DC
:1006000029F0405C5F4F6F4F7F4F40781A8EFE1786
:1006100011F081E08A8F4D8F5E8F6F8F78A383E01A
:10062000898FCE0149960E945605A096E2E10C946E
:100630005236A8E1B0E0EFE1F3E00C943E36698376
:100640007A838B839C832D833E834F835887B9E0C5
:10065000EB2EF12CEC0EFD1ECE010196B7010E948F
:100660002B068E010F5E1F4FCE010596B8010E942A
:100670002B062985223008F47EC03989323010F4E7
:10068000B8017CC08A859A8989278A87243011F02D
:10069000223031F4231709F06EC06BE772E06EC0B0
:1006A000343039F41D861E861F86188A1C861B86E8
:1006B00004C0323021F484E08987B7015FC02B8504
:1006C0003C858B899C89281B390B3C872B87ED84C3
:1006D000FE840F851889AD88BE88CF88D88CEA142F
:1006E000FB040C051D0540F4EE0CFF1C001F111F40
:1006F000215030403C872B8720E030E040E050E044
:1007000080E090E0A0E0B0E460E070E0EA14FB0478
:100710000C051D0540F0282B392B4A2B5B2BEA18C2
:10072000FB080C091D09B695A79597958795EE0CC2
:10073000FF1C001F111F6F5F7F4F6F31710531F775
:10074000DA01C9018F779070A070B0708034910584
:10075000A105B10561F427FD0AC0E114F10401050A
:10076000110529F0205C3F4F4F4F5F4F20782D87B8
:100770003E874F87588BBE01675F7F4FCB010E943A
:1007800056056896EAE00C945A36A8E1B0E0EBEC26
:10079000F3E00C94423669837A838B839C832D83A8
:1007A0003E834F83588789E0E82EF12CEC0EFD1E26
:1007B000CE010196B7010E942B068E010F5E1F4FDE
:1007C000CE010596B8010E942B068985823040F043
:1007D0008989823028F0C701B8010E94A30601C0B0
:1007E0008FEF6896E6E00C945E36A8E1B0E0EBEFA0
:1007F000F3E00C94423669837A838B839C832D8348
:100800003E834F83588789E0E82EF12CEC0EFD1EC5
:10081000CE010196B7010E942B068E010F5E1F4F7D
:10082000CE010596B8010E942B068985823040F0E2
:100830008989823028F0C701B8010E94A30601C04F
:100840008FEF6896E6E00C945E36A8E1B0E0EBE24C
:10085000F4E00C94423669837A838B839C832D83E6
:100860003E834F83588789E0E82EF12CEC0EFD1E65
:10087000CE010196B7010E942B068E010F5E1F4F1D
:10088000CE010596B8010E942B068985823040F082
:100890008989823028F0C701B8010E94A30601C0EF
:1008A00081E06896E6E00C945E36A8E0B0E0EBE507
:1008B000F4E00C943F369B01AC0183E08983DA01BC
:1008C000C9018827B7FD83959927AA27BB27B82E8A
:1008D000211531054105510519F482E089833AC09B
:1008E0008823A9F0203080E0380780E0480780E8BE
:1008F000580729F460E070E080E09FEC30C0EE24FF
:10090000FF248701E21AF30A040B150B02C07901D8
:100910008A018EE1C82ED12CDC82CB82ED82FE8250
:100920000F831887C801B7010E94070501971816A1
:10093000190684F4082E04C0EE0CFF1C001F111FC2
:100940000A94D2F7ED82FE820F831887C81AD90A5B
:10095000DC82CB82BA82CE0101960E94560528968F
:10096000E9E00C945B36ACE0B0E0E9EBF4E00C9429
:10097000463669837A838B839C83CE010196BE01C0
:100980006B5F7F4F0E942B068D81823061F1823038
:1009900050F1843021F48E81882351F12EC02F81B3
:1009A000388537FD20C06E812F3131051CF066235C
:1009B000F9F023C08EE190E0821B930B29853A85E4
:1009C0004B855C8504C056954795379527958A9544
:1009D000D2F76623B1F050954095309521953F4F61
:1009E0004F4F5F4F0EC020E030E040E050E009C0C4
:1009F0002FEF3FEF4FEF5FE704C020E030E040E033
:100A000050E8B901CA012C96E2E00C946236EF92EC
:100A1000FF920F931F937B018C0180E0E81680E02A
:100A2000F80681E0080780E0180788F48FEFE816E1
:100A3000F1040105110531F028F088E090E0A0E014
:100A4000B0E017C080E090E0A0E0B0E012C080E02D
:100A5000E81680E0F80680E0080781E0180728F033
:100A600088E190E0A0E0B0E004C080E190E0A0E088
:100A7000B0E020E230E040E050E0281B390B4A0BA8
:100A80005B0B04C016950795F794E7948A95D2F707
:100A9000F701ED57FD4F8081281B310941095109AC
:100AA000C9011F910F91FF90EF900895DF92EF928F
:100AB000FF920F931F93FC01E480F580068117815C
:100AC000D1808081823048F480E090E0A0E1B0E005
:100AD000E82AF92A0A2B1B2BA5C0843009F49FC0F1
:100AE000823021F4EE24FF24870105C0E114F104D3
:100AF0000105110519F4E0E0F0E096C06281738110
:100B00009FEF623879070CF05BC022E83FEF261BAD
:100B1000370B2A3131052CF020E030E040E050E086
:100B20002AC0B801A701022E04C076956795579593
:100B300047950A94D2F781E090E0A0E0B0E004C0CD
:100B4000880F991FAA1FBB1F2A95D2F70197A109E9
:100B5000B1098E219F21A023B1230097A105B105E2
:100B600021F081E090E0A0E0B0E09A01AB01282BF9
:100B7000392B4A2B5B2BDA01C9018F779070A0705B
:100B8000B07080349105A105B10539F427FF09C083
:100B9000205C3F4F4F4F5F4F04C0215C3F4F4F4F92
:100BA0005F4FE0E0F0E02030A0E03A07A0E04A0725
:100BB000A0E45A0710F0E1E0F0E079018A0127C0D3
:100BC0006038710564F5FB01E158FF4FD801C7019A
:100BD0008F779070A070B07080349105A105B10539
:100BE00039F4E7FE0DC080E490E0A0E0B0E004C07E
:100BF0008FE390E0A0E0B0E0E80EF91E0A1F1B1F93
:100C000017FF05C016950795F794E794319687E08E
:100C100016950795F794E7948A95D1F705C0EE24C9
:100C2000FF248701EFEFF0E06E2F67956627679549
:100C3000902F9F77D794DD24D7948E2F8695492FB8
:100C4000462B582F5D29B701CA011F910F91FF90C4
:100C5000EF90DF900895FC01DB01408151812281FA
:100C6000622F6F7770E0221F2227221F9381892F26
:100C7000880F822B282F30E0991F9927991F1196F2
:100C80009C93119721153105A9F541155105610571
:100C9000710511F482E037C082E89FEF13969C93B0
:100CA0008E9312979A01AB0167E0220F331F441F06
:100CB000551F6A95D1F783E08C930DC0220F331F27
:100CC000441F551F12968D919C911397019713966F
:100CD0009C938E931297203080E0380780E048077D
:100CE00080E4580758F314962D933D934D935C93ED
:100CF000179708952F3F310579F441155105610586
:100D0000710519F484E08C93089564FF03C081E0B9
:100D10008C9312C01C9210C02F57304013963C93F6
:100D20002E93129783E08C9387E0440F551F661F24
:100D3000771F8A95D1F7706414964D935D936D93E8
:100D40007C93179708951F93DC01FB019C919230CF
:100D500008F447C08081823008F443C0943051F4D5
:100D600011961C91843099F58181682F70E0611B88
:100D700071093FC0843021F0923031F48230B9F1F2
:100D80008181882389F12DC011961C9111978230A1
:100D9000F1F081811817D9F412962D913C91139797
:100DA000828193818217930794F028173907BCF04A
:100DB00014968D919D910D90BC91A02D248135812B
:100DC00046815781281739074A075B0718F4112312
:100DD00041F00AC082179307A407B50740F4112316
:100DE00019F061E070E005C06FEF7FEF02C060E0D6
:100DF00070E0CB011F910895DF93CF93CDB7DEB79D
:100E00002A970FB6F894DEBF0FBECDBF8A836B83DF
:100E10004C8319828A81843008F0FBC08B81883032
:100E200008F0F7C08C81823008F0F3C08C81282F45
:100E300030E03A87298789859A85009709F475C03B
:100E400029853A852130310509F0E5C08A81282FAE
:100E500030E038872F838F8198858130910549F163
:100E60002F813885223031052CF48F8198850097A9
:100E700061F0D1C02F8138852230310571F18F8129
:100E8000988583309105E9F1C6C0AAE3B0E0EAE3B2
:100E9000F0E08081482F8B81282F30E081E090E0C6
:100EA000022E02C0880F991F0A94E2F7842B8C93BC
:100EB000B2C0A7E3B0E0E7E3F0E08081482F8B8188
:100EC000282F30E081E090E0022E02C0880F991FA9
:100ED0000A94E2F7842B8C939EC0A4E3B0E0E4E391
:100EE000F0E08081482F8B81282F30E081E090E076
:100EF000022E02C0880F991F0A94E2F7842B8C936C
:100F00008AC0A1E3B0E0E1E3F0E08081482F8B816B
:100F1000282F30E081E090E0022E02C0880F991F58
:100F20000A94E2F7842B8C9376C08A81282F30E0D4
:100F30003E832D838D819E818130910559F12D81D4
:100F40003E81223031052CF48D819E81009769F01D
:100F500062C02D813E812230310589F18D819E81D3
:100F60008330910509F440C056C0AAE3B0E0EAE33B
:100F7000F0E08081482F8B81282F30E081E090E0E5
:100F8000022E02C0880F991F0A94E2F780958423ED
:100F90008C9341C0A7E3B0E0E7E3F0E08081482F05
:100FA0008B81282F30E081E090E0022E02C0880F74
:100FB000991F0A94E2F7809584238C932CC0A4E3B4
:100FC000B0E0E4E3F0E08081482F8B81282F30E00F
:100FD00081E090E0022E02C0880F991F0A94E2F788
:100FE000809584238C9317C0A1E3B0E0E1E3F0E0A7
:100FF0008081482F8B81282F30E081E090E0022E05
:1010000002C0880F991F0A94E2F7809584238C937D
:1010100002C081E0898389812A960FB6F894DEBFE9
:101020000FBECDBFCF91DF910895DF93CF93CDB7A2
:10103000DEB72A970FB6F894DEBF0FBECDBF8A8306
:101040006B834C8319828A81843008F0FEC08B81C7
:10105000883008F0FAC08C81823008F0F6C08C81AC
:10106000282F30E03A87298789859A85009709F4E7
:1010700075C029853A852130310509F0E3C08A81A0
:10108000282F30E038872F838F8198858130910514
:1010900049F12F813885223031052CF48F819885D4
:1010A000009761F0D4C02F8138852230310571F16D
:1010B0008F81988583309105E9F1C9C0ABE3B0E039
:1010C000EBE3F0E08081482F8B81282F30E081E036
:1010D00090E0022E02C0880F991F0A94E2F7842B39
:1010E0008C93B5C0A8E3B0E0E8E3F0E08081482F3E
:1010F0008B81282F30E081E090E0022E02C0880F23
:10110000991F0A94E2F7842B8C93A1C0A5E3B0E069
:10111000E5E3F0E08081482F8B81282F30E081E0EB
:1011200090E0022E02C0880F991F0A94E2F7842BE8
:101130008C938DC0A2E3B0E0E2E3F0E08081482F21
:101140008B81282F30E081E090E0022E02C0880FD2
:10115000991F0A94E2F7842B8C9379C08A81282FF7
:1011600030E03E832D838D819E818130910559F140
:101170002D813E81223031052CF48D819E81009796
:1011800069F065C02D813E812230310589F18D8164
:101190009E818330910509F440C059C0ABE3B0E0B3
:1011A000EBE3F0E08081482F8B81282F30E081E055
:1011B00090E0022E02C0880F991F0A94E2F78095F2
:1011C00084238C9344C0A8E3B0E0E8E3F0E080819E
:1011D000482F8B81282F30E081E090E0022E02C062
:1011E000880F991F0A94E2F7809584238C932FC06F
:1011F000A5E3B0E0E5E3F0E08081482F8B81282F64
:1012000030E081E090E0022E02C0880F991F0A941E
:10121000E2F7809584238C931AC0A2E3B0E0E2E366
:10122000F0E08081482F8B81282F30E081E090E032
:10123000022E02C0880F991F0A94E2F7809584233A
:101240008C9305C081E0898302C081E08983898114
:101250002A960FB6F894DEBF0FBECDBFCF91DF91B7
:101260000895DF93CF93CDB7DEB727970FB6F894E5
:10127000DEBF0FBECDBF8A836B835D834C83198233
:101280008A81843008F078C08B81883008F074C07F
:101290008A81282F30E03F832E834E815F81413049
:1012A000510559F18E819F818230910534F42E8150
:1012B0003F812115310569F05CC04E815F8142306C
:1012C000510579F18E819F818330910509F43DC0EC
:1012D00050C0E9E3F0E08081282F30E08B81882F37
:1012E00090E0A90102C0559547958A95E2F7CA0199
:1012F0008170EC81FD81808341C0E6E3F0E0808174
:10130000282F30E08B81882F90E0A90102C05595ED
:1013100047958A95E2F7CA018170EC81FD8180834F
:101320002DC0E3E3F0E08081282F30E08B81882F0F
:1013300090E0A90102C0559547958A95E2F7CA0148
:101340008170EC81FD81808319C0E0E3F0E0808151
:10135000282F30E08B81882F90E0A90102C055959D
:1013600047958A95E2F7CA018170EC81FD818083FF
:1013700005C081E0898302C081E089838981279645
:101380000FB6F894DEBF0FBECDBFCF91DF910895A9
:10139000DF93CF9300D000D00F92CDB7DEB78A8312
:1013A0006B8319828A81843008F076C08B81883003
:1013B00008F072C08A81282F30E03D832C838C8115
:1013C0009D818130910549F12C813D81223031058B
:1013D0002CF48C819D81009761F05BC02C813D8154
:1013E0002230310571F18C819D8183309105E9F1C5
:1013F00050C0ABE3B0E0EBE3F0E08081482F8B819D
:10140000282F30E081E090E0022E02C0880F991F63
:101410000A94E2F784278C9341C0A8E3B0E0E8E3A4
:10142000F0E08081482F8B81282F30E081E090E030
:10143000022E02C0880F991F0A94E2F784278C932A
:101440002DC0A5E3B0E0E5E3F0E08081482F8B817B
:10145000282F30E081E090E0022E02C0880F991F13
:101460000A94E2F784278C9319C0A2E3B0E0E2E388
:10147000F0E08081482F8B81282F30E081E090E0E0
:10148000022E02C0880F991F0A94E2F784278C93DA
:1014900005C081E0898302C081E0898389810F9042
:1014A0000F900F900F900F90CF91DF910895DF93E1
:1014B000CF93CDB7DEB729970FB6F894DEBF0FBE36
:1014C000CDBF8A836B8319828A81843008F0A4C0DF
:1014D0008B818F3FB1F58A81282F30E039872887AB
:1014E0008885998581309105D1F02885398522300C
:1014F00031052CF488859985009761F01FC02885F7
:1015000039852230310581F08885998583309105B0
:1015100081F014C0EAE3F0E08FEF80837FC0E7E35F
:10152000F0E08FEF80837AC0E4E3F0E08FEF808318
:1015300075C0E1E3F0E08FEF808370C081E08983C4
:101540006DC08B81882391F58A81282F30E03F83FD
:101550002E838E819F8181309105C9F02E813F813C
:10156000223031052CF48E819F81009761F01BC0E1
:101570002E813F812230310571F08E819F81833031
:10158000910569F010C0EAE3F0E0108247C0E7E39C
:10159000F0E0108243C0E4E3F0E010823FC0E1E3FA
:1015A000F0E010823BC081E0898338C08A81282F17
:1015B00030E03D832C838C819D8181309105D1F079
:1015C0002C813D81223031052CF48C819D81009746
:1015D00061F01FC02C813D812230310581F08C816A
:1015E0009D818330910581F014C0EAE3F0E08B81A6
:1015F000808314C0E7E3F0E08B8180830FC0E4E3D5
:10160000F0E08B8180830AC0E1E3F0E08B8180838E
:1016100005C081E0898302C081E0898389812996A0
:101620000FB6F894DEBF0FBECDBFCF91DF91089506
:10163000DF93CF93CDB7DEB729970FB6F894DEBF0F
:101640000FBECDBF8A836B8319828A81843008F0F4
:10165000A4C08B818F3FB1F58A81282F30E0398774
:1016600028878885998581309105D1F0288539852D
:10167000223031052CF488859985009761F01FC0D0
:10168000288539852230310581F088859985833018
:10169000910581F014C0EBE3F0E08FEF80837FC011
:1016A000E8E3F0E08FEF80837AC0E5E3F0E08FEFCE
:1016B000808375C0E2E3F0E08FEF808370C081E04B
:1016C00089836DC08B81882391F58A81282F30E032
:1016D0003F832E838E819F8181309105C9F02E81B9
:1016E0003F81223031052CF48E819F81009761F07B
:1016F0001BC02E813F812230310571F08E819F8188
:101700008330910569F010C0EBE3F0E0108247C030
:10171000E8E3F0E0108243C0E5E3F0E010823FC070
:10172000E2E3F0E010823BC081E0898338C08A8127
:10173000282F30E03D832C838C819D818130910561
:10174000D1F02C813D81223031052CF48C819D819A
:10175000009761F01FC02C813D812230310581F05E
:101760008C819D818330910581F014C0EBE3F0E022
:101770008B81808314C0E8E3F0E08B8180830FC00D
:10178000E5E3F0E08B8180830AC0E2E3F0E08B8147
:10179000808305C081E0898302C081E089838981DB
:1017A00029960FB6F894DEBF0FBECDBFCF91DF9163
:1017B0000895DF93CF9300D000D000D0CDB7DEB72F
:1017C0008A837C836B8319828A81843008F03EC0CF
:1017D0008A81282F30E03E832D838D819E81813048
:1017E0009105E1F02D813E81223031052CF48D816F
:1017F0009E81009761F027C02D813E812230310506
:10180000A1F08D819E8183309105B1F01CC0E9E388
:10181000F0E08081EB81FC8180831AC0E6E3F0E098
:101820008081EB81FC81808313C0E3E3F0E0808161
:10183000EB81FC8180830CC0E0E3F0E08081EB81F0
:10184000FC81808305C081E0898302C081E08983B7
:10185000898126960FB6F894DEBF0FBECDBFCF911B
:10186000DF910895DF93CF93CDB7DEB7A1E2B0E06B
:10187000E1E2F0E080818E7F8C93A1E2B0E0E1E2D2
:10188000F0E080818D7F8C93E0E2F0E082E0808365
:10189000A6E5B0E0E6E5F0E0808184608C93CF912E
:1018A000DF910895DF93CF930F92CDB7DEB7898391
:1018B000A6E5B0E0E6E5F0E0808180648C93E2E2AA
:1018C000F0E08981880F8083A6E5B0E0E6E5F0E0EE
:1018D000808184608C930F90CF91DF910895DF9386
:1018E000CF93CDB7DEB7A6E5B0E0E6E5F0E08081C6
:1018F00080688C93A6E5B0E0E6E5F0E08081806248
:101900008C93E6E5F0E080818823DCF7CF91DF91CE
:101910000895DF93CF93CDB7DEB7A6E5B0E0E6E557
:10192000F0E0808180688C93A6E5B0E0E6E5F0E029
:10193000808180618C93CF91DF910895DF93CF9365
:101940000F92CDB7DEB78983E3E2F0E08981880F9B
:101950008083A3E2B0E0E3E2F0E080818E7F8C93AD
:10196000A6E5B0E0E6E5F0E080818F7D8C93A6E50A
:10197000B0E0E6E5F0E0808180688C93E6E5F0E099
:1019800080818823DCF70F90CF91DF910895DF935A
:10199000CF930F92CDB7DEB78983E3E2F0E0898180
:1019A000880F8083A3E2B0E0E3E2F0E08081816011
:1019B0008C93A6E5B0E0E6E5F0E080818F7D8C9326
:1019C000A6E5B0E0E6E5F0E0808180688C93E6E58E
:1019D000F0E080818823DCF70F90CF91DF910895AC
:1019E000DF93CF930F92CDB7DEB78983E3E2F0E0C8
:1019F00089818083A6E5B0E0E6E5F0E0808180683B
:101A00008C93E6E5F0E080818823DCF70F90CF919E
:101A1000DF910895DF93CF93CDB7DEB7A6E5B0E0B1
:101A2000E6E5F0E0808180688C93E6E5F0E0808177
:101A30008823DCF7E3E2F0E08081CF91DF91089525
:101A4000DF93CF93CDB7DEB7E1E2F0E08081882F5E
:101A500090E0887F907080369105B1F7A6E5B0E000
:101A6000E6E5F0E0808180688C93E1E2F0E080813F
:101A7000882F90E0887F907080389105B1F7E3E27D
:101A8000F0E08081CF91DF910895DF93CF93CDB7C0
:101A9000DEB780E060EF0E94570A80E06FEF0E949F
:101AA000180BCF91DF910895DF93CF93CDB7DEB7B9
:101AB000E1970FB6F894DEBF0FBECDBF9CA78BA7F2
:101AC000198ACE0142969EA78DA7E4E8F3E0F8AB11
:101AD000EFA7F0E1F9ABEFA5F8A900808FA598A9D1
:101AE000019698AB8FA7EDA5FEA500828DA59EA5BA
:101AF00001969EA78DA799A9915099ABE9A9EE23CC
:101B000051F71BA281E08CA382E08DA383E08EA31A
:101B100084E08FA385E088A786E089A787E08AA76D
:101B20008BA59CA5009709F4E5C0EBA5FCA58FEF5C
:101B30008083188ADAC08889282F30E0CE01879602
:101B4000FC01E20FF31F908180E0692F40E00E94CA
:101B500015081F86B5C08F85282F30E0CE018396EB
:101B6000FC01E20FF31F90819E012E5D3F4F80E04C
:101B7000692FA9010E9431098AA1882309F09DC01B
:101B800080E090E0A0EFB1E48B879C87AD87BE87B3
:101B90006B857C858D859E8520E030E04AEF54E49E
:101BA0000E941F02DC01CB018F839887A987BA8727
:101BB0006F81788589859A8520E030E040E85FE391
:101BC0000E94250488232CF481E090E09E838D837D
:101BD0003FC06F81788589859A8520E03FEF4FE788
:101BE00057E40E94C50318164CF56B857C858D85DE
:101BF0009E8520E030E040E251E40E941F02DC01BB
:101C0000CB01BC01CD010E944900DC01CB019E83C8
:101C10008D830FC088EC90E09C838B838B819C81AB
:101C20000197F1F79C838B838D819E8101979E8321
:101C30008D838D819E81009769F726C06F8178859D
:101C400089859A850E944900DC01CB019E838D83A2
:101C50008D819E819A83898389819A810197F1F789
:101C60009A83898311C08F85282F30E0CE01839617
:101C7000FC01E20FF31F90819E012E5D3F4F80E03B
:101C8000692FA9010E9431098AA1882361F38F85F8
:101C9000282F30E08889482F50E0220F331F220F71
:101CA000331FCE010196820F931F840F951FFC01F5
:101CB00071968081EBA5FCA580838F858F5F8F87D0
:101CC0008F85843008F447CF8889282F30E0CE01F3
:101CD0008796FC01E20FF31F908180E0692F41E0BD
:101CE0000E94150888898F5F888B8889843008F462
:101CF00022CF02C081E0898B8989E1960FB6F894E2
:101D0000DEBF0FBECDBFCF91DF9108950F931F931C
:101D1000DF93CF93CDB7DEB7C755D0400FB6F89459
:101D2000DEBF0FBECDBFFE01E95AFF4F808383E0C7
:101D300062E040E00E94150883E063E040E00E941A
:101D40001508FE01E95AFF4F82E060810E94180BDE
:101D500083E064E041E00E941508FE01ED5AFF4F68
:101D600080E090E0A0E8BFE380839183A283B38307
:101D70008E01015B1F4FFE01ED5AFF4F60817181A3
:101D8000828193812BEA3AEA4AE250E40E941F02E0
:101D9000DC01CB01F80180839183A283B383FE0130
:101DA000E15BFF4F608171818281938120E030E0AF
:101DB00040E85FE30E942504882334F4FE01E25BDF
:101DC000FF4F81E08083E0C0FE01E15BFF4F608157
:101DD00071818281938120E030E04FE753E40E94DB
:101DE000C50318160CF0C0C0FE01ED5AFF4F60810C
:101DF00071818281938120E030E04AE754E40E94BF
:101E00001903DC01CB01FE01E65BFF4F8083918368
:101E1000A283B3838E010A5B1F4FFE01E65BFF4F77
:101E2000608171818281938120E030E04AEF54E447
:101E30000E941F02DC01CB01F80180839183A28301
:101E4000B383FE01EA5BFF4F6081718182819381E0
:101E500020E030E040E85FE30E942504882344F45A
:101E6000FE01EC5BFF4F81E090E09183808364C0D2
:101E7000FE01EA5BFF4F608171818281938120E0E6
:101E80003FEF4FE757E40E94C50318160CF043C01C
:101E9000FE01E65BFF4F608171818281938120E0CA
:101EA00030E040E251E40E941F02DC01CB018E01D0
:101EB0000C5B1F4FBC01CD010E944900DC01CB012E
:101EC000F801918380831FC0FE01EE5BFF4F88EC19
:101ED00090E091838083FE01EE5BFF4F80819181D2
:101EE0000197F1F7FE01EE5BFF4F91838083DE01E6
:101EF000AC5BBF4FFE01EC5BFF4F8081918101978E
:101F000011969C938E93FE01EC5BFF4F8081918133
:101F10000097D1F642C08E010C5B1F4FFE01EA5BB9
:101F2000FF4F60817181828193810E944900DC01B1
:101F3000CB01F80191838083DE01A05CBF4FFE01DD
:101F4000EC5BFF4F8081918111969C938E93FE01F3
:101F5000E05CFF4F808191810197F1F7FE01E05C29
:101F6000FF4F9183808319C08E01025B1F4FFE01DA
:101F7000E15BFF4F60817181828193810E94490002
:101F8000DC01CB01F8018083FE01E25BFF4F808121
:101F90008FAF8FAD8A95F1F78FAF83E064E040E0BB
:101FA0000E94150880E090E0A8E4B3E48BAF9CAFFA
:101FB000ADAFBEAF6BAD7CAD8DAD9EAD2BEA3AEA59
:101FC0004AE250E40E941F02DC01CB018FAB98AFC4
:101FD000A9AFBAAF6FA978AD89AD9AAD20E030E076
:101FE00040E85FE30E94250488231CF481E08EAB67
:101FF00091C06FA978AD89AD9AAD20E030E04FE790
:1020000053E40E94C50318160CF07BC06BAD7CAD89
:102010008DAD9EAD20E030E04AE754E40E94190304
:10202000DC01CB018AAB9BABACABBDAB6AA97BA996
:102030008CA99DA920E030E04AEF54E40E941F02E1
:10204000DC01CB018EA79FA7A8ABB9AB6EA57FA57E
:1020500088A999A920E030E040E85FE30E942504C8
:1020600088232CF481E090E09DA78CA73FC06EA54B
:102070007FA588A999A920E03FEF4FE757E40E9488
:10208000C50318164CF56AA97BA98CA99DA920E067
:1020900030E040E251E40E941F02DC01CB01BC01B0
:1020A000CD010E944900DC01CB019DA78CA70FC088
:1020B00088EC90E09BA78AA78AA59BA50197F1F7DA
:1020C0009BA78AA78CA59DA501979DA78CA78CA5EA
:1020D0009DA5009769F724C06EA57FA588A999A939
:1020E0000E944900DC01CB019DA78CA78CA59DA572
:1020F00099A788A788A599A50197F1F799A788A717
:102100000FC06FA978AD89AD9AAD0E944900DC017E
:10211000CB018EAB8EA98FA38FA18A95F1F78FA3E8
:10212000FE01E95AFF4F8081982F9295907F82E0BF
:10213000692F0E94180B83E064E041E00E941508BB
:1021400080E090E0A0E8BFE38BA39CA3ADA3BEA377
:102150006BA17CA18DA19EA12BEA3AEA4AE250E450
:102160000E941F02DC01CB018F8F98A3A9A3BAA301
:102170006F8D78A189A19AA120E030E040E85FE36B
:102180000E94250488231CF481E08E8F91C06F8DFE
:1021900078A189A19AA120E030E04FE753E40E94A2
:1021A000C50318160CF07BC06BA17CA18DA19EA16C
:1021B00020E030E04AE754E40E941903DC01CB013F
:1021C0008A8F9B8FAC8FBD8F6A8D7B8D8C8D9D8D03
:1021D00020E030E04AEF54E40E941F02DC01CB0112
:1021E0008E8B9F8BA88FB98F6E897F89888D998DF3
:1021F00020E030E040E85FE30E94250488232CF4CF
:1022000081E090E09D8B8C8B3FC06E897F89888DAB
:10221000998D20E03FEF4FE757E40E94C503181661
:102220004CF56A8D7B8D8C8D9D8D20E030E040E2F9
:1022300051E40E941F02DC01CB01BC01CD010E94D0
:102240004900DC01CB019D8B8C8B0FC088EC90E0AA
:102250009B8B8A8B8A899B890197F1F79B8B8A8B51
:102260008C899D8901979D8B8C8B8C899D8900978A
:1022700069F724C06E897F89888D998D0E944900F5
:10228000DC01CB019D8B8C8B8C899D89998B888BF4
:10229000888999890197F1F7998B888B0FC06F8D89
:1022A00078A189A19AA10E944900DC01CB018E8FFF
:1022B0008E8D8F878F858A95F1F78F8783E064E015
:1022C00040E00E94150880E090E0A0E0B0E48B8739
:1022D0009C87AD87BE876B857C858D859E8520E03C
:1022E00030E04AEF54E40E941F02DC01CB018F83EF
:1022F0009887A987BA876F81788589859A8520E034
:1023000030E040E85FE30E94250488232CF481E05C
:1023100090E09E838D833FC06F81788589859A8503
:1023200020E03FEF4FE757E40E94C50318164CF535
:102330006B857C858D859E8520E030E040E251E410
:102340000E941F02DC01CB01BC01CD010E944900AB
:10235000DC01CB019E838D830FC088EC90E09C83D1
:102360008B838B819C810197F1F79C838B838D817B
:102370009E8101979E838D838D819E81009769F751
:1023800014C06F81788589859A850E944900DC0197
:10239000CB019E838D838D819E819A8389838981E0
:1023A0009A810197F1F79A838983C95ADF4F0FB653
:1023B000F894DEBF0FBECDBFCF91DF911F910F917B
:1023C0000895DF93CF93CDB7DEB76C970FB6F8942F
:1023D000DEBF0FBECDBF82E060EF0E94570A83E0F0
:1023E00064E041E00E94FC0683E062E041E00E947C
:1023F000FC0683E063E041E00E94FC0680E090E0A0
:10240000ACE0B2E4898F9A8FAB8FBC8F698D7A8DE7
:102410008B8D9C8D20E030E04AEF54E40E941F0237
:10242000DC01CB018D8B9E8BAF8BB88F6D897E8944
:102430008F89988D20E030E040E85FE30E9425041A
:1024400088232CF481E090E09C8B8B8B3FC06D89BE
:102450007E898F89988D20E03FEF4FE757E40E94F7
:10246000C50318164CF5698D7A8D8B8D9C8D20E0F7
:1024700030E040E251E40E941F02DC01CB01BC01CC
:10248000CD010E944900DC01CB019C8B8B8B0FC0DE
:1024900088EC90E09A8B898B89899A890197F1F76A
:1024A0009A8B898B8B899C8901979C8B8B8B8B89D1
:1024B0009C89009769F714C06D897E898F89988DF2
:1024C0000E944900DC01CB019C8B8B8B8B899C8902
:1024D000988B8F878F8598890197F1F7988B8F87D5
:1024E00083E30E94860E82E30E94860E88E20E94A9
:1024F000860E8CE00E94860E86E00E94860E81E0A9
:102500000E94860E80E090E0A0E0B0E48B879C877C
:10251000AD87BE876B857C858D859E8520E030E00C
:102520004AEF54E40E941F02DC01CB018F8398879D
:10253000A987BA876F81788589859A8520E030E000
:1025400040E85FE30E94250488232CF481E090E0BA
:102550009E838D833FC06F81788589859A8520E031
:102560003FEF4FE757E40E94C50318164CF56B8503
:102570007C858D859E8520E030E040E251E40E941C
:102580001F02DC01CB01BC01CD010E944900DC012E
:10259000CB019E838D830FC088EC90E09C838B835E
:1025A0008B819C810197F1F79C838B838D819E8128
:1025B00001979E838D838D819E81009769F714C05A
:1025C0006F81788589859A850E944900DC01CB015D
:1025D0009E838D838D819E819A83898389819A814F
:1025E0000197F1F79A83898380E80E94860E6C96A2
:1025F0000FB6F894DEBF0FBECDBFCF91DF91089527
:102600000F931F93DF93CF93CDB7DEB7C755D0405D
:102610000FB6F894DEBF0FBECDBFFE01E95AFF4FE3
:10262000808383E062E041E00E94150883E063E07C
:1026300040E00E941508FE01E95AFF4F82E06081E8
:102640000E94180B83E064E041E00E941508FE013F
:10265000ED5AFF4F80E090E0A0E8BFE380839183D4
:10266000A283B3838E01015B1F4FFE01ED5AFF4F22
:1026700060817181828193812BEA3AEA4AE250E4D7
:102680000E941F02DC01CB01F80180839183A283A9
:10269000B383FE01E15BFF4F608171818281938191
:1026A00020E030E040E85FE30E942504882334F412
:1026B000FE01E25BFF4F81E08083E0C0FE01E15B51
:1026C000FF4F608171818281938120E030E04FE78C
:1026D00053E40E94C50318160CF0C0C0FE01ED5A69
:1026E000FF4F608171818281938120E030E04AE771
:1026F00054E40E941903DC01CB01FE01E65BFF4FAD
:1027000080839183A283B3838E010A5B1F4FFE01F6
:10271000E65BFF4F608171818281938120E030E030
:102720004AEF54E40E941F02DC01CB01F8018083D0
:102730009183A283B383FE01EA5BFF4F60817181C5
:102740008281938120E030E040E85FE30E9425042D
:10275000882344F4FE01EC5BFF4F81E090E091831D
:10276000808364C0FE01EA5BFF4F608171818281DA
:10277000938120E03FEF4FE757E40E94C50318160E
:102780000CF043C0FE01E65BFF4F608171818281E6
:10279000938120E030E040E251E40E941F02DC011E
:1027A000CB018E010C5B1F4FBC01CD010E94490083
:1027B000DC01CB01F801918380831FC0FE01EE5B39
:1027C000FF4F88EC90E091838083FE01EE5BFF4F2A
:1027D000808191810197F1F7FE01EE5BFF4F9183BC
:1027E0008083DE01AC5BBF4FFE01EC5BFF4F80815D
:1027F0009181019711969C938E93FE01EC5BFF4FA4
:10280000808191810097D1F642C08E010C5B1F4FF1
:10281000FE01EA5BFF4F60817181828193810E949A
:102820004900DC01CB01F80191838083DE01A05CCB
:10283000BF4FFE01EC5BFF4F8081918111969C930D
:102840008E93FE01E05CFF4F808191810197F1F74B
:10285000FE01E05CFF4F9183808319C08E01025B13
:102860001F4FFE01E15BFF4F608171818281938187
:102870000E944900DC01CB01F8018083FE01E25B8C
:10288000FF4F80818FAF8FAD8A95F1F78FAF83E0D7
:1028900064E040E00E94150880E090E0A8E4B3E422
:1028A0008BAF9CAFADAFBEAF6BAD7CAD8DAD9EAD14
:1028B0002BEA3AEA4AE250E40E941F02DC01CB0113
:1028C0008FAB98AFA9AFBAAF6FA978AD89AD9AAD0C
:1028D00020E030E040E85FE30E94250488231CF4F8
:1028E00081E08EAB91C06FA978AD89AD9AAD20E043
:1028F00030E04FE753E40E94C50318160CF07BC08C
:102900006BAD7CAD8DAD9EAD20E030E04AE754E488
:102910000E941903DC01CB018AAB9BABACABBDAB16
:102920006AA97BA98CA99DA920E030E04AEF54E474
:102930000E941F02DC01CB018EA79FA7A8ABB9ABF9
:102940006EA57FA588A999A920E030E040E85FE363
:102950000E94250488232CF481E090E09DA78CA799
:102960003FC06EA57FA588A999A920E03FEF4FE75A
:1029700057E40E94C50318164CF56AA97BA98CA9D7
:102980009DA920E030E040E251E40E941F02DC01FA
:10299000CB01BC01CD010E944900DC01CB019DA708
:1029A0008CA70FC088EC90E09BA78AA78AA59BA55F
:1029B0000197F1F79BA78AA78CA59DA501979DA7D5
:1029C0008CA78CA59DA5009769F724C06EA57FA54F
:1029D00088A999A90E944900DC01CB019DA78CA779
:1029E0008CA59DA599A788A788A599A50197F1F71A
:1029F00099A788A70FC06FA978AD89AD9AAD0E943D
:102A00004900DC01CB018EAB8EA98FA38FA18A95E3
:102A1000F1F78FA3FE01E95AFF4F8081982F92951D
:102A2000907F82E0692F0E94180B83E064E041E010
:102A30000E94150880E090E0A0E8BFE38BA39CA370
:102A4000ADA3BEA36BA17CA18DA19EA12BEA3AEA06
:102A50004AE250E40E941F02DC01CB018F8F98A351
:102A6000A9A3BAA36F8D78A189A19AA120E030E033
:102A700040E85FE30E94250488231CF481E08E8FE8
:102A800091C06F8D78A189A19AA120E030E04FE735
:102A900053E40E94C50318160CF07BC06BA17CA107
:102AA0008DA19EA120E030E04AE754E40E94190382
:102AB000DC01CB018A8F9B8FAC8FBD8F6A8D7B8DA4
:102AC0008C8D9D8D20E030E04AEF54E40E941F027F
:102AD000DC01CB018E8B9F8BA88FB98F6E897F898C
:102AE000888D998D20E030E040E85FE30E94250466
:102AF00088232CF481E090E09D8B8C8B3FC06E8905
:102B00007F89888D998D20E03FEF4FE757E40E9441
:102B1000C50318164CF56A8D7B8D8C8D9D8D20E03C
:102B200030E040E251E40E941F02DC01CB01BC0115
:102B3000CD010E944900DC01CB019D8B8C8B0FC025
:102B400088EC90E09B8B8A8B8A899B890197F1F7AF
:102B50009B8B8A8B8C899D8901979D8B8C8B8C8913
:102B60009D89009769F724C06E897F89888D998D2A
:102B70000E944900DC01CB019D8B8C8B8C899D8947
:102B8000998B888B888999890197F1F7998B888B24
:102B90000FC06F8D78A189A19AA10E944900DC0124
:102BA000CB018E8F8E8D8F878F858A95F1F78F87DA
:102BB00083E064E040E00E94150880E090E0A0E03F
:102BC000B0E48B879C87AD87BE876B857C858D85C0
:102BD0009E8520E030E04AEF54E40E941F02DC01B1
:102BE000CB018F839887A987BA876F81788589857C
:102BF0009A8520E030E040E85FE30E9425048823C6
:102C00002CF481E090E09E838D833FC06F817885B6
:102C100089859A8520E03FEF4FE757E40E94C5037E
:102C200018164CF56B857C858D859E8520E030E0FF
:102C300040E251E40E941F02DC01CB01BC01CD0146
:102C40000E944900DC01CB019E838D830FC088EC7C
:102C500090E09C838B838B819C810197F1F79C830F
:102C60008B838D819E8101979E838D838D819E8133
:102C7000009769F714C06F81788589859A850E94CD
:102C80004900DC01CB019E838D838D819E819A83D7
:102C9000898389819A810197F1F79A838983C95A37
:102CA000DF4F0FB6F894DEBF0FBECDBFCF91DF91DF
:102CB0001F910F910895DF93CF9300D0CDB7DEB76A
:102CC0009A83898311C080919403282F30E08981F1
:102CD0009A81FC01E20FF31F80810E940013809112
:102CE00094038F5F8093940380919403282F30E0A6
:102CF00089819A81FC01E20FF31F8081882319F7F3
:102D00000F900F90CF91DF910895DF93CF9300D074
:102D100000D0CDB7DEB789836A838981282F30E060
:102D20003C832B838B819C81009731F02B813C81EC
:102D30002130310531F009C08A8180580E94860E09
:102D400004C08A8180540E94860E0F900F900F90CD
:102D50000F90CF91DF9108950F931F93DF93CF933F
:102D6000CDB7DEB760970FB6F894DEBF0FBECDBF0C
:102D70006D877E878F87988B19828D859E85AF851D
:102D8000B889BB239CF48DE20E9400138D859E853B
:102D9000AF85B889B095A095909581959F4FAF4F1D
:102DA000BF4F8D879E87AF87B88B3CC08D859E8532
:102DB000AF85B8890097A105B105A1F580E30E9410
:102DC000001330C08981082F112707FD10958D85CC
:102DD0009E85AF85B8892AE030E040E050E0BC0134
:102DE000CD010E94F935DC01CB01282F205DCE01F9
:102DF0000296FC01E00FF11F208389818F5F898398
:102E00008D859E85AF85B8892AE030E040E050E0AE
:102E1000BC01CD010E94F935DA01C9018D879E8779
:102E2000AF87B88B8D859E85AF85B8891816190632
:102E30001A061B063CF289818150898310C0898162
:102E4000282F332727FD3095CE010296FC01E20F93
:102E5000F31F80810E9400138981815089838981B9
:102E600088236CF760960FB6F894DEBF0FBECDBF17
:102E7000CF91DF911F910F910895DF93CF9300D0F1
:102E80000F92CDB7DEB79B838A8381E089838A81E5
:102E90009B81009791F00BC0EA81FB8120818A81A0
:102EA0009B8101969B838A83822F0E940013EA8173
:102EB000FB818081882381F701C0198289810F906D
:102EC0000F900F90CF91DF910895DF93CF93CDB7FF
:102ED000DEB7A0970FB6F894DEBF0FBECDBF88A3B4
:102EE00081E08F8F88A18B350CF052C188A1863A82
:102EF0000CF44EC188A188230CF4A5C01E8E9DC081
:102F00008E8D992787FD9095A92FB92FBC01CD01F2
:102F10000E945504DC01CB01BC01CD012AE939E94D
:102F200041EB50E40E941F02DC01CB01BC01CD014A
:102F300020E030E84BEB54E40E94F201DC01CB01CD
:102F4000BC01CD010E94B304DC01CB010E949D3283
:102F500080E090E0A8E4B2E4898F9A8FAB8FBC8FB9
:102F6000698D7A8D8B8D9C8D20E030E04AEF54E4A2
:102F70000E941F02DC01CB018D8B9E8BAF8BB88F23
:102F80006D897E898F89988D20E030E040E85FE38D
:102F90000E94250488232CF481E090E09C8B8B8B8D
:102FA0003FC06D897E898F89988D20E03FEF4FE784
:102FB00057E40E94C50318164CF5698D7A8D8B8DE8
:102FC0009C8D20E030E040E251E40E941F02DC01D1
:102FD000CB01BC01CD010E944900DC01CB019C8BDF
:102FE0008B8B0FC088EC90E09A8B898B89899A89AA
:102FF0000197F1F79A8B898B8B899C8901979C8B20
:103000008B8B8B899C89009769F714C06D897E89A9
:103010008F89988D0E944900DC01CB019C8B8B8BA2
:103020008B899C89988B8F878F8598890197F1F779
:10303000988B8F878E8D8F5F8E8F9E8D88A189173D
:103040000CF05ECFA6C01D8E9DC08D8D992787FD8B
:103050009095A92FB92FBC01CD010E945504DC0128
:10306000CB01BC01CD012FE335E342EB50E40E94DC
:103070001F02DC01CB01BC01CD0120E030E84BEBAD
:1030800054E40E94F201DC01CB01BC01CD010E949D
:10309000B304DC01CB010E949D3280E090E0A8E403
:1030A000B2E48B879C87AD87BE876B857C858D85D9
:1030B0009E8520E030E04AEF54E40E941F02DC01CC
:1030C000CB018F839887A987BA876F817885898597
:1030D0009A8520E030E040E85FE30E9425048823E1
:1030E0002CF481E090E09E838D833FC06F817885D2
:1030F00089859A8520E03FEF4FE757E40E94C5039A
:1031000018164CF56B857C858D859E8520E030E01A
:1031100040E251E40E941F02DC01CB01BC01CD0161
:103120000E944900DC01CB019E838D830FC088EC97
:1031300090E09C838B838B819C810197F1F79C832A
:103140008B838D819E8101979E838D838D819E814E
:10315000009769F714C06F81788589859A850E94E8
:103160004900DC01CB019E838D838D819E819A83F2
:10317000898389819A810197F1F79A8389838D8D5B
:1031800081508D8F9D8D88A198170CF05ECF01C066
:103190001F8E8F8DA0960FB6F894DEBF0FBECDBFE9
:1031A000CF91DF9108950F931F93DF93CF93CDB706
:1031B000DEB7C456D0400FB6F894DEBF0FBECDBF09
:1031C000CE018C599F4F0E94540DFE01EC59FF4FC8
:1031D0008081803380F1FE01EC59FF4F80818A337A
:1031E00050F5FE01EC59FF4F80810E940013FE0153
:1031F000EC59FF4F8081FE01ED59FF4F80538083D2
:1032000080919503909196039C01220F331FC90171
:10321000880F991F880F991F280F391FFE01ED593C
:10322000FF4F8081882F90E0820F931F9093960329
:1032300080939503C5CFFE01EC59FF4F80818D32FD
:1032400039F48FEF809383038DE20E940013B8CF8F
:10325000FE01EC59FF4F80818D3309F017C4809136
:1032600083038F3F59F48091950390919603909535
:1032700081959F4F9093960380939503809195033A
:10328000909196038B3591050CF01DC280919503AA
:10329000909196032FEF863A92070CF414C281E0C6
:1032A0000E94860EFE01E15AFF4F80E090E0AAEFF7
:1032B000B3E480839183A283B3838E01055A1F4FA9
:1032C000FE01E15AFF4F608171818281938120E08C
:1032D00030E04AEF54E40E941F02DC01CB01F80108
:1032E00080839183A283B383FE01E55AFF4F6081FF
:1032F00071818281938120E030E040E85FE30E94A9
:103300002504882344F4FE01E75AFF4F81E090E052
:103310009183808364C0FE01E55AFF4F6081718113
:103320008281938120E03FEF4FE757E40E94C5037D
:1033300018160CF043C0FE01E15AFF4F6081718105
:103340008281938120E030E040E251E40E941F023C
:10335000DC01CB018E01075A1F4FBC01CD010E9439
:103360004900DC01CB01F801918380831FC0FE017D
:10337000E95AFF4F88EC90E091838083FE01E95A7F
:10338000FF4F808191810197F1F7FE01E95AFF4FCC
:1033900091838083DE01A75ABF4FFE01E75AFF4F9A
:1033A00080819181019711969C938E93FE01E75A3B
:1033B000FF4F808191810097D1F627C08E01075A77
:1033C0001F4FFE01E55AFF4F608171818281938119
:1033D0000E944900DC01CB01F80191838083DE016A
:1033E000AB5ABF4FFE01E75AFF4F808191818D9309
:1033F0009C93FE01EB5AFF4F808191810197F1F779
:10340000FE01EB5AFF4F9183808380E690E00E949B
:103410003D178091950390919603AA2797FDA0955B
:10342000BA2FBC01CD010E94AC16FE01EF5AFF4F2E
:1034300080E090E0AAEFB3E480839183A283B3831A
:103440008E01035B1F4FFE01EF5AFF4F60817181B8
:103450008281938120E030E04AEF54E40E941F0211
:10346000DC01CB01F80180839183A283B383FE0149
:10347000E35BFF4F608171818281938120E030E0C6
:1034800040E85FE30E942504882344F4FE01E55BE5
:10349000FF4F81E090E09183808364C0FE01E35B95
:1034A000FF4F608171818281938120E03FEF4FE780
:1034B00057E40E94C50318160CF043C0FE01EF5AF2
:1034C000FF4F608171818281938120E030E040E292
:1034D00051E40E941F02DC01CB018E01055B1F4FEE
:1034E000BC01CD010E944900DC01CB01F8019183B0
:1034F00080831FC0FE01E75BFF4F88EC90E0918363
:103500008083FE01E75BFF4F808191810197F1F796
:10351000FE01E75BFF4F91838083DE01A55BBF4F18
:10352000FE01E55BFF4F80819181019711969C938D
:103530008E93FE01E55BFF4F808191810097D1F66C
:1035400027C08E01055B1F4FFE01E35BFF4F6081CB
:103550007181828193810E944900DC01CB01F801D5
:1035600091838083DE01A95BBF4FFE01E55BFF4FC6
:10357000808191818D939C93FE01E95BFF4F808157
:1035800091810197F1F7FE01E95BFF4F9183808301
:1035900081E061E00E9485168091950390919603E9
:1035A0000E946517109296031092950381E00E9485
:1035B000860EFE01ED5BFF4F80E090E0A6E9B3E4EC
:1035C00080839183A283B3838E01015C1F4FFE0130
:1035D000ED5BFF4F608171818281938120E030E05B
:1035E0004AEF54E40E941F02DC01CB01F801808302
:1035F0009183A283B383FE01FF96608171818281F2
:10360000938120E030E040E85FE30E9425048823B6
:103610002CF481E090E09EAF8DAF46C0FE01FF9696
:10362000608171818281938120E03FEF4FE757E411
:103630000E94C503181664F5FE01ED5BFF4F608123
:1036400071818281938120E030E040E251E40E9468
:103650001F02DC01CB01BC01CD010E944900DC014D
:10366000CB019EAF8DAF0FC088EC90E09CAF8BAFCD
:103670008BAD9CAD0197F1F79CAF8BAF8DAD9EAD3F
:1036800001979EAF8DAF8DAD9EAD009769F716C0C7
:10369000FE01FF9660817181828193810E944900C1
:1036A000DC01CB019EAF8DAF8DAD9EAD9AAF89AFE2
:1036B00089AD9AAD0197F1F79AAF89AF8DE690E0A9
:1036C0000E943D177DCD81E00E94860E80E090E053
:1036D000AAEFB3E48DAB9EABAFABB8AF6DA97EA93B
:1036E0008FA998AD20E030E04AEF54E40E941F0219
:1036F000DC01CB0189AB9AABABABBCAB69A97AA9B6
:103700008BA99CA920E030E040E85FE30E942504FB
:1037100088232CF481E090E098AB8FA73FC069A983
:103720007AA98BA99CA920E03FEF4FE757E40E94BC
:10373000C50318164CF56DA97EA98FA998AD20E098
:1037400030E040E251E40E941F02DC01CB01BC01E9
:10375000CD010E944900DC01CB0198AB8FA70FC0BF
:1037600088EC90E09EA78DA78DA59EA50197F1F707
:103770009EA78DA78FA598A9019798AB8FA78FA516
:1037800098A9009769F714C069A97AA98BA99CA97F
:103790000E944900DC01CB0198AB8FA78FA598A9A7
:1037A0009CA78BA78BA59CA50197F1F79CA78BA73E
:1037B0008CE790E00E943D1780E090E0A8ECB3E435
:1037C0008FA398A7A9A7BAA76FA178A589A59AA53D
:1037D00020E030E04AEF54E40E941F02DC01CB01FC
:1037E0008BA39CA3ADA3BEA36BA17CA18DA19EA125
:1037F00020E030E040E85FE30E94250488232CF4B9
:1038000081E090E09AA389A33FC06BA17CA18DA128
:103810009EA120E03FEF4FE757E40E94C503181632
:103820004CF56FA178A589A59AA520E030E040E28B
:1038300051E40E941F02DC01CB01BC01CD010E94BA
:103840004900DC01CB019AA389A30FC088EC90E06A
:1038500098A38F8F8F8D98A10197F1F798A38F8FE1
:1038600089A19AA101979AA389A389A19AA10097F6
:1038700069F714C06BA17CA18DA19EA10E94490093
:10388000DC01CB019AA389A389A19AA19E8F8D8F78
:103890008D8D9E8D0197F1F79E8F8D8F81E060E079
:1038A0000E94851689E890E00E943D1780E090E034
:1038B000A6E9B3E4898F9A8FAB8FBC8F698D7A8D1F
:1038C0008B8D9C8D20E030E04AEF54E40E941F0273
:1038D000DC01CB018D8B9E8BAF8BB88F6D897E8980
:1038E0008F89988D20E030E040E85FE30E94250456
:1038F00088232CF481E090E09C8B8B8B3FC06D89FA
:103900007E898F89988D20E03FEF4FE757E40E9432
:10391000C50318164CF5698D7A8D8B8D9C8D20E032
:1039200030E040E251E40E941F02DC01CB01BC0107
:10393000CD010E944900DC01CB019C8B8B8B0FC019
:1039400088EC90E09A8B898B89899A890197F1F7A5
:103950009A8B898B8B899C8901979C8B8B8B8B890C
:103960009C89009769F714C06D897E898F89988D2D
:103970000E944900DC01CB019C8B8B8B8B899C893D
:10398000988B8F878F8598890197F1F7988B8F8710
:10399000109296031092950380E090E0AAEFB3E4B2
:1039A0008B879C87AD87BE876B857C858D859E8543
:1039B00020E030E04AEF54E40E941F02DC01CB011A
:1039C0008F839887A987BA876F81788589859A853B
:1039D00020E030E040E85FE30E94250488232CF4D7
:1039E00081E090E09E838D833FC06F8178858985DB
:1039F0009A8520E03FEF4FE757E40E94C503181671
:103A00004CF56B857C858D859E8520E030E040E21D
:103A100051E40E941F02DC01CB01BC01CD010E94D8
:103A20004900DC01CB019E838D830FC088EC90E0C0
:103A30009C838B838B819C810197F1F79C838B8383
:103A40008D819E8101979E838D838D819E810097BC
:103A500069F714C06F81788589859A850E9449002D
:103A6000DC01CB019E838D838D819E819A83898326
:103A700089819A810197F1F79A83898381E00E9475
:103A8000860E8DE690E00E943D179ACBFE01EC5920
:103A9000FF4F8081833609F093CB81E00E94860E30
:103AA000109296031092950310928303CC59DF4F26
:103AB0000FB6F894DEBF0FBECDBFCF91DF911F913F
:103AC0000F9108950F931F93DF93CF93CDB7DEB778
:103AD000C85DD0400FB6F894DEBF0FBECDBF86E9FB
:103AE00090E00E943D17FE01E153FF4F80E090E01F
:103AF000AFE2B4E480839183A283B3838E01055344
:103B00001F4FFE01E153FF4F6081718182819381DC
:103B100020E030E04AEF54E40E941F02DC01CB01B8
:103B2000F80180839183A283B383FE01E553FF4FA5
:103B3000608171818281938120E030E040E85FE321
:103B40000E942504882344F4FE01E753FF4F81E0DF
:103B500090E09183808364C0FE01E553FF4F608154
:103B600071818281938120E03FEF4FE757E40E940B
:103B7000C50318160CF043C0FE01E153FF4F6081EE
:103B800071818281938120E030E040E251E40E9423
:103B90001F02DC01CB018E0107531F4FBC01CD0179
:103BA0000E944900DC01CB01F801918380831FC092
:103BB000FE01E953FF4F88EC90E091838083FE0182
:103BC000E953FF4F808191810197F1F7FE01E9539D
:103BD000FF4F91838083DE01A753BF4FFE01E75360
:103BE000FF4F80819181019711969C938E93FE01E6
:103BF000E753FF4F808191810097D1F627C08E0156
:103C000007531F4FFE01E553FF4F60817181828191
:103C100093810E944900DC01CB01F80191838083EC
:103C2000DE01AB53BF4FFE01E753FF4F808191810F
:103C30008D939C93FE01EB53FF4F808191810197FF
:103C4000F1F7FE01EB53FF4F9183808387E993E007
:103C50000E94540D809197038F3FC1F38091970389
:103C60008D33A1F380919703833621F080919703E0
:103C70000E94001380919703282F30E0C952DF4F34
:103C800039832883C75DD040C952DF4F888199812D
:103C9000C75DD0408133910509F475C3C952DF4F28
:103CA000E881F981C75DD040E233F1055CF4C95287
:103CB000DF4F28813981C75DD04020333105C9F0FD
:103CC0000C941D28C952DF4F88819981C75DD0406F
:103CD0008233910509F4A0C6C952DF4FE881F9810A
:103CE000C75DD040E336F10511F40C94A6270C947F
:103CF0001D2881E060E00E94851685EA90E00E9420
:103D00003D17FE01EF53FF4F80E090E0AAE7B4E4D7
:103D100080839183A283B3838E0103541F4FFE01DE
:103D2000EF53FF4F608171818281938120E030E009
:103D30004AEF54E40E941F02DC01CB01F8018083AA
:103D40009183A283B383FE01E354FF4F60817181AD
:103D50008281938120E030E040E85FE30E94250407
:103D6000882344F4FE01E554FF4F81E090E0918305
:103D7000808364C0FE01E354FF4F608171818281C2
:103D8000938120E03FEF4FE757E40E94C5031816E8
:103D90000CF043C0FE01EF53FF4F608171818281BF
:103DA000938120E030E040E251E40E941F02DC01F8
:103DB000CB018E0105541F4FBC01CD010E9449006B
:103DC000DC01CB01F801918380831FC0FE01E75421
:103DD000FF4F88EC90E091838083FE01E754FF4F12
:103DE000808191810197F1F7FE01E754FF4F9183A4
:103DF0008083DE01A554BF4FFE01E554FF4F808153
:103E00009181019711969C938E93FE01E554FF4F8B
:103E1000808191810097D1F627C08E0105541F4FF4
:103E2000FE01E354FF4F60817181828193810E9482
:103E30004900DC01CB01F80191838083DE01A954A4
:103E4000BF4FFE01E554FF4F808191818D939C937C
:103E5000FE01E954FF4F808191810197F1F7FE0146
:103E6000E954FF4F9183808381E00E94860EFE011A
:103E7000EB52FF4F10827FC284EB90E00E943D170F
:103E8000FE01ED54FF4F80E090E0AFE2B4E48083A8
:103E90009183A283B3838E0101551F4FFE01ED5420
:103EA000FF4F608171818281938120E030E04AEF91
:103EB00054E40E941F02DC01CB01F801808391834E
:103EC000A283B383FE01E155FF4F6081718182813E
:103ED000938120E030E040E85FE30E9425048823DE
:103EE00044F4FE01E355FF4F81E090E0918380832D
:103EF00064C0FE01E155FF4F608171818281938131
:103F000020E03FEF4FE757E40E94C50318160CF07E
:103F100043C0FE01ED54FF4F608171818281938126
:103F200020E030E040E251E40E941F02DC01CB01BE
:103F30008E0103551F4FBC01CD010E944900DC01D9
:103F4000CB01F801918380831FC0FE01E555FF4F2F
:103F500088EC90E091838083FE01E555FF4F8081DE
:103F600091810197F1F7FE01E555FF4F9183808321
:103F7000DE01A355BF4FFE01E355FF4F80819181C4
:103F8000019711969C938E93FE01E355FF4F80811C
:103F900091810097D1F627C08E0103551F4FFE0176
:103FA000E155FF4F60817181828193810E944900B8
:103FB000DC01CB01F80191838083DE01A755BF4F5F
:103FC000FE01E355FF4F808191818D939C93FE010B
:103FD000E755FF4F808191810197F1F7FE01E75589
:103FE000FF4F9183808381E060E00E9485160E94EC
:103FF000AC289093990380939803809198039091B3
:104000009903F4E087359F0781F484EC90E00E94E7
:104010003D1781E080939A0320919A03CA52DF4FA3
:104020002883C65DD0400C949B2880ED90E00E94D0
:104030003D1781E060E00E9485168FED90E00E94C0
:104040003D17FE01EB55FF4F80E090E0AFE2B4E496
:1040500080839183A283B3838E010F551F4FFE018E
:10406000EB55FF4F608171818281938120E030E0C8
:104070004AEF54E40E941F02DC01CB01F801808367
:104080009183A283B383FE01EF55FF4F608171815D
:104090008281938120E030E040E85FE30E942504C4
:1040A000882344F4FE01E156FF4F81E090E09183C4
:1040B000808364C0FE01EF55FF4F60817181828172
:1040C000938120E03FEF4FE757E40E94C5031816A5
:1040D0000CF043C0FE01EB55FF4F6081718182817E
:1040E000938120E030E040E251E40E941F02DC01B5
:1040F000CB018E0101561F4FBC01CD010E9449002A
:10410000DC01CB01F801918380831FC0FE01E356DF
:10411000FF4F88EC90E091838083FE01E356FF4FD0
:10412000808191810197F1F7FE01E356FF4F918362
:104130008083DE01A156BF4FFE01E156FF4F808113
:104140009181019711969C938E93FE01E156FF4F4A
:10415000808191810097D1F627C08E0101561F4FB3
:10416000FE01EF55FF4F60817181828193810E9432
:104170004900DC01CB01F80191838083DE01A55663
:10418000BF4FFE01E156FF4F808191818D939C933B
:10419000FE01E556FF4F808191810197F1F7FE0105
:1041A000E556FF4F9183808381E00E94860EFE01D9
:1041B000EB52FF4F8081823009F0D4C081E060E093
:1041C0000E94851689EE90E00E943D1781E067E02D
:1041D00041E00E94FC0681E067E041E00E94150892
:1041E000FE01E956FF4F80E090E0AAEFB3E4808340
:1041F0009183A283B3838E010D561F4FFE01E956B2
:10420000FF4F608171818281938120E030E04AEF2D
:1042100054E40E941F02DC01CB01F80180839183EA
:10422000A283B383FE01ED56FF4F608171818281CD
:10423000938120E030E040E85FE30E94250488237A
:1042400044F4FE01EF56FF4F81E090E091838083BC
:1042500064C0FE01ED56FF4F6081718182819381C0
:1042600020E03FEF4FE757E40E94C50318160CF01B
:1042700043C0FE01E956FF4F6081718182819381C5
:1042800020E030E040E251E40E941F02DC01CB015B
:104290008E010F561F4FBC01CD010E944900DC0169
:1042A000CB01F801918380831FC0FE01E157FF4FCE
:1042B00088EC90E091838083FE01E157FF4F80817D
:1042C00091810197F1F7FE01E157FF4F91838083C0
:1042D000DE01AF56BF4FFE01EF56FF4F8081918147
:1042E000019711969C938E93FE01EF56FF4F8081AC
:1042F00091810097D1F627C08E010F561F4FFE0106
:10430000ED56FF4F60817181828193810E94490047
:10431000DC01CB01F80191838083DE01A357BF4FFD
:10432000FE01EF56FF4F808191818D939C93FE019A
:10433000E357FF4F808191810197F1F7FE01E35729
:10434000FF4F9183808381E067E040E00E94150881
:1043500010929A03F0919A03CA52DF4FF883C65D18
:10436000D040E9C6DE01AB52BF4FFE01EB52FF4F1A
:1043700080818F5F8C93FE01EB52FF4F80818330F1
:1043800008F47ACD63CC81E060E00E9485168BEF63
:1043900090E00E943D17FE01E757FF4F80E090E05C
:1043A000AAE7B4E480839183A283B3838E010B5781
:1043B0001F4FFE01E757FF4F60817181828193811A
:1043C00020E030E04AEF54E40E941F02DC01CB0100
:1043D000F80180839183A283B383FE01EB57FF4FE3
:1043E000608171818281938120E030E040E85FE369
:1043F0000E942504882344F4FE01ED57FF4F81E01D
:1044000090E09183808364C0FE01EB57FF4F608191
:1044100071818281938120E03FEF4FE757E40E9452
:10442000C50318160CF043C0FE01E757FF4F60812B
:1044300071818281938120E030E040E251E40E946A
:104440001F02DC01CB018E010D571F4FBC01CD01B6
:104450000E944900DC01CB01F801918380831FC0D9
:10446000FE01EF57FF4F88EC90E091838083FE01BF
:10447000EF57FF4F808191810197F1F7FE01EF57D0
:10448000FF4F91838083DE01AD57BF4FFE01ED5793
:10449000FF4F80819181019711969C938E93FE012D
:1044A000ED57FF4F808191810097D1F627C08E0193
:1044B0000D571F4FFE01EB57FF4F608171818281C5
:1044C00093810E944900DC01CB01F8019183808334
:1044D000DE01A158BF4FFE01ED57FF4F8081918152
:1044E0008D939C93FE01E158FF4F8081918101974C
:1044F000F1F7FE01E158FF4F9183808381E00E9434
:10450000860EFE01EC52FF4F10827EC284EB90E0DB
:104510000E943D17FE01E558FF4F80E090E0AFE2BA
:10452000B4E480839183A283B3838E0109581F4F23
:10453000FE01E558FF4F608171818281938120E007
:1045400030E04AEF54E40E941F02DC01CB01F80185
:1045500080839183A283B383FE01E958FF4F60817A
:1045600071818281938120E030E040E85FE30E9426
:104570002504882344F4FE01EB58FF4F81E090E0CE
:104580009183808364C0FE01E958FF4F608171818F
:104590008281938120E03FEF4FE757E40E94C503FB
:1045A00018160CF043C0FE01E558FF4F6081718181
:1045B0008281938120E030E040E251E40E941F02BA
:1045C000DC01CB018E010B581F4FBC01CD010E94B5
:1045D0004900DC01CB01F801918380831FC0FE01FB
:1045E000ED58FF4F88EC90E091838083FE01ED58F9
:1045F000FF4F808191810197F1F7FE01ED58FF4F48
:1046000091838083DE01AB58BF4FFE01EB58FF4F13
:1046100080819181019711969C938E93FE01EB58B6
:10462000FF4F808191810097D1F627C08E010B58F2
:104630001F4FFE01E958FF4F608171818281938194
:104640000E944900DC01CB01F80191838083DE01E7
:10465000AF58BF4FFE01EB58FF4F808191818D9382
:104660009C93FE01EF58FF4F808191810197F1F7F4
:10467000FE01EF58FF4F9183808381E060E00E944C
:1046800085160E94AC28909399038093980380919B
:10469000980390919903F8E08E3A9F0779F48AE0A5
:1046A00091E00E943D1781E080939A0320919A0344
:1046B000CA52DF4F2883C65DD0403DC580ED90E0F3
:1046C0000E943D1781E060E00E9485168FED90E02A
:1046D0000E943D17FE01E359FF4F80E090E0AFE2FA
:1046E000B4E480839183A283B3838E0107591F4F63
:1046F000FE01E359FF4F608171818281938120E047
:1047000030E04AEF54E40E941F02DC01CB01F801C3
:1047100080839183A283B383FE01E759FF4F6081B9
:1047200071818281938120E030E040E85FE30E9464
:104730002504882344F4FE01E959FF4F81E090E00D
:104740009183808364C0FE01E759FF4F60817181CE
:104750008281938120E03FEF4FE757E40E94C50339
:1047600018160CF043C0FE01E359FF4F60817181C0
:104770008281938120E030E040E251E40E941F02F8
:10478000DC01CB018E0109591F4FBC01CD010E94F4
:104790004900DC01CB01F801918380831FC0FE0139
:1047A000EB59FF4F88EC90E091838083FE01EB5939
:1047B000FF4F808191810197F1F7FE01EB59FF4F87
:1047C00091838083DE01A959BF4FFE01E959FF4F54
:1047D00080819181019711969C938E93FE01E959F6
:1047E000FF4F808191810097D1F627C08E01095932
:1047F0001F4FFE01E759FF4F6081718182819381D4
:104800000E944900DC01CB01F80191838083DE0125
:10481000AD59BF4FFE01E959FF4F808191818D93C2
:104820009C93FE01ED59FF4F808191810197F1F733
:10483000FE01ED59FF4F9183808381E00E94860E37
:10484000FE01EC52FF4F8081823009F0D4C081E03C
:1048500060E00E94851689EE90E00E943D1781E09D
:1048600067E041E00E94FC0681E067E041E00E94D1
:104870001508FE01E15AFF4F80E090E0AAEFB3E493
:1048800080839183A283B3838E01055A1F4FFE015B
:10489000E15AFF4F608171818281938120E030E095
:1048A0004AEF54E40E941F02DC01CB01F80180832F
:1048B0009183A283B383FE01E55AFF4F608171812A
:1048C0008281938120E030E040E85FE30E9425048C
:1048D000882344F4FE01E75AFF4F81E090E0918382
:1048E000808364C0FE01E55AFF4F6081718182813F
:1048F000938120E03FEF4FE757E40E94C50318166D
:104900000CF043C0FE01E15AFF4F6081718182814A
:10491000938120E030E040E251E40E941F02DC017C
:10492000CB018E01075A1F4FBC01CD010E944900E7
:10493000DC01CB01F801918380831FC0FE01E95A9D
:10494000FF4F88EC90E091838083FE01E95AFF4F8E
:10495000808191810197F1F7FE01E95AFF4F918320
:104960008083DE01A75ABF4FFE01E75AFF4F8081C7
:104970009181019711969C938E93FE01E75AFF4F08
:10498000808191810097D1F627C08E01075A1F4F71
:10499000FE01E55AFF4F60817181828193810E94FF
:1049A0004900DC01CB01F80191838083DE01AB5A21
:1049B000BF4FFE01E75AFF4F808191818D939C93F9
:1049C000FE01EB5AFF4F808191810197F1F7FE01C3
:1049D000EB5AFF4F9183808381E067E040E00E94C3
:1049E000150810929A03F0919A03CA52DF4FF88388
:1049F000C65DD040A0C3DE01AC52BF4FFE01EC52F9
:104A0000FF4F80818F5F8C93FE01EC52FF4F8081BE
:104A1000833008F47BCD1AC981E060E00E948516DE
:104A200087E191E00E943D17FE01EF5AFF4F80E0C1
:104A300090E0AAE7B4E480839183A283B3838E01DC
:104A4000035B1F4FFE01EF5AFF4F6081718182812E
:104A5000938120E030E04AEF54E40E941F02DC0121
:104A6000CB01F80180839183A283B383FE01E35BD2
:104A7000FF4F608171818281938120E030E040E8C6
:104A80005FE30E942504882344F4FE01E55BFF4FA9
:104A900081E090E09183808364C0FE01E35BFF4F7F
:104AA000608171818281938120E03FEF4FE757E47D
:104AB0000E94C50318160CF043C0FE01EF5AFF4FC9
:104AC000608171818281938120E030E040E251E495
:104AD0000E941F02DC01CB018E01055B1F4FBC0150
:104AE000CD010E944900DC01CB01F8019183808354
:104AF0001FC0FE01E75BFF4F88EC90E0918380834D
:104B0000FE01E75BFF4F808191810197F1F7FE0184
:104B1000E75BFF4F91838083DE01A55BBF4FFE0102
:104B2000E55BFF4F80819181019711969C938E9355
:104B3000FE01E55BFF4F808191810097D1F627C090
:104B40008E01055B1F4FFE01E35BFF4F60817181AA
:104B5000828193810E944900DC01CB01F80191839D
:104B60008083DE01A95BBF4FFE01E55BFF4F8081C3
:104B700091818D939C93FE01E95BFF4F8081918130
:104B80000197F1F7FE01E95BFF4F9183808381E09C
:104B90000E94860EFE01ED52FF4F1082CEC184EBC3
:104BA00090E00E943D17FE01ED5BFF4F80E090E03A
:104BB000AFE2B4E480839183A283B3838E01015C6E
:104BC0001F4FFE01ED5BFF4F6081718182819381F8
:104BD00020E030E04AEF54E40E941F02DC01CB01E8
:104BE000F80180839183A283B383FE01FF966081E5
:104BF00071818281938120E030E040E85FE30E9490
:104C0000250488232CF481E090E09EAF8DAF46C050
:104C1000FE01FF96608171818281938120E03FEFE8
:104C20004FE757E40E94C503181664F5FE01ED5BDB
:104C3000FF4F608171818281938120E030E040E20A
:104C400051E40E941F02DC01CB01BC01CD010E9496
:104C50004900DC01CB019EAF8DAF0FC088EC90E026
:104C60009CAF8BAF8BAD9CAD0197F1F79CAF8BAF39
:104C70008DAD9EAD01979EAF8DAF8DAD9EAD009772
:104C800069F716C0FE01FF96608171818281938170
:104C90000E944900DC01CB019EAF8DAF8DAD9EAD72
:104CA0009AAF89AF89AD9AAD0197F1F79AAF89AF05
:104CB00081E060E00E9485160E94AC2890939903E1
:104CC000809398038091980390919903FDE085303B
:104CD0009F0779F486E291E00E943D1781E080937E
:104CE0009A0320919A03CA52DF4F2883C65DD040B1
:104CF00022C280ED90E00E943D1781E060E00E94BA
:104D000085168FED90E00E943D1780E090E0AFE2C5
:104D1000B4E48DAB9EABAFABB8AF6DA97EA98FA944
:104D200098AD20E030E04AEF54E40E941F02DC011D
:104D3000CB0189AB9AABABABBCAB69A97AA98BA908
:104D40009CA920E030E040E85FE30E94250488232E
:104D50002CF481E090E098AB8FA73FC069A97AA9B5
:104D60008BA99CA920E03FEF4FE757E40E94C503C1
:104D700018164CF56DA97EA98FA998AD20E030E0FA
:104D800040E251E40E941F02DC01CB01BC01CD01D5
:104D90000E944900DC01CB0198AB8FA70FC088ECC3
:104DA00090E09EA78DA78DA59EA50197F1F79EA7E0
:104DB0008DA78FA598A9019798AB8FA78FA598A9C4
:104DC000009769F714C069A97AA98BA99CA90E94C8
:104DD0004900DC01CB0198AB8FA78FA598A99CA7B0
:104DE0008BA78BA59CA50197F1F79CA78BA781E0CA
:104DF0000E94860EFE01ED52FF4F8081823009F045
:104E000093C081E060E00E94851689EE90E00E94E8
:104E10003D1781E067E041E00E94FC0681E067E029
:104E200041E00E94150880E090E0AAEFB3E48FA370
:104E300098A7A9A7BAA76FA178A589A59AA520E0E8
:104E400030E04AEF54E40E941F02DC01CB018BA347
:104E50009CA3ADA3BEA36BA17CA18DA19EA120E0CC
:104E600030E040E85FE30E94250488232CF481E0D1
:104E700090E09AA389A33FC06BA17CA18DA19EA1C4
:104E800020E03FEF4FE757E40E94C50318164CF5AA
:104E90006FA178A589A59AA520E030E040E251E411
:104EA0000E941F02DC01CB01BC01CD010E94490020
:104EB000DC01CB019AA389A30FC088EC90E098A3F2
:104EC0008F8F8F8D98A10197F1F798A38F8F89A16C
:104ED0009AA101979AA389A389A19AA1009769F73A
:104EE00014C06BA17CA18DA19EA10E944900DC0190
:104EF000CB019AA389A389A19AA19E8F8D8F8D8DB5
:104F00009E8D0197F1F79E8F8D8F81E067E040E0E5
:104F10000E94150810929A0330919A03CA52DF4FEB
:104F20003883C65DD04007C1DE01AD52BF4FFE01E0
:104F3000ED52FF4F80818F5F8C93FE01ED52FF4F4A
:104F40008081833008F42BCE0C94261E80E090E004
:104F5000A8E4B2E4898F9A8FAB8FBC8F698D7A8D6C
:104F60008B8D9C8D20E030E04AEF54E40E941F02BC
:104F7000DC01CB018D8B9E8BAF8BB88F6D897E89C9
:104F80008F89988D20E030E040E85FE30E9425049F
:104F900088232CF481E090E09C8B8B8B3FC06D8943
:104FA0007E898F89988D20E03FEF4FE757E40E947C
:104FB000C50318164CF5698D7A8D8B8D9C8D20E07C
:104FC00030E040E251E40E941F02DC01CB01BC0151
:104FD000CD010E944900DC01CB019C8B8B8B0FC063
:104FE00088EC90E09A8B898B89899A890197F1F7EF
:104FF0009A8B898B8B899C8901979C8B8B8B8B8956
:105000009C89009769F714C06D897E898F89988D76
:105010000E944900DC01CB019C8B8B8B8B899C8986
:10502000988B8F878F8598890197F1F7988B8F8759
:1050300081E00E94860E0C94261E81E00E94860E5E
:1050400082E391E00E943D1780E090E0AFE2B4E49B
:105050008B879C87AD87BE876B857C858D859E857C
:1050600020E030E04AEF54E40E941F02DC01CB0153
:105070008F839887A987BA876F81788589859A8574
:1050800020E030E040E85FE30E94250488232CF410
:1050900081E090E09E838D833FC06F817885898514
:1050A0009A8520E03FEF4FE757E40E94C5031816AA
:1050B0004CF56B857C858D859E8520E030E040E257
:1050C00051E40E941F02DC01CB01BC01CD010E9412
:1050D0004900DC01CB019E838D830FC088EC90E0FA
:1050E0009C838B838B819C810197F1F79C838B83BD
:1050F0008D819E8101979E838D838D819E810097F6
:1051000069F714C06F81788589859A850E94490066
:10511000DC01CB019E838D838D819E819A8389835F
:1051200089819A810197F1F79A83898381E00E94AE
:10513000860E0C946F1DCA52DF4F8881C65DD04029
:10514000C852DF4F0FB6F894DEBF0FBECDBFCF9170
:10515000DF911F910F910895DF93CF9300D00F92AD
:10516000CDB7DEB71B821A828BE993E00E94540D03
:1051700080919B038033F8F080919B038A33D8F4AD
:105180008AE20E94001380919B03805389838A8165
:105190009B819C01220F331FC901880F991F880F23
:1051A000991F280F391F8981882F90E0820F931F44
:1051B0009B838A83D9CF80919B038D3359F481E0FF
:1051C0000E94860E8A819B810F900F900F90CF9145
:1051D000DF91089580919B03833631F681E00E9430
:1051E000860E1B821A82C0CFDF93CF93CDB7DEB776
:1051F000AD970FB6F894DEBF0FBECDBF81E00E9421
:10520000860E80E060E00E9485168FE391E00E94A8
:105210003D1781E060E00E94851686E591E00E94DE
:105220003D17CE018B960E94540D8BA5813308F457
:1052300091C18BA5843308F08DC18BA5282F30E058
:105240003DA72CA78CA59DA58233910509F488C0A4
:105250002CA53DA52333310509F4FFC08CA59DA5E0
:1052600081339105F1F60E946F0C85E00E949E0C3F
:1052700082E30E94F00C0E94890C80E090E0AAEF8B
:10528000B3E48FA398A7A9A7BAA76FA178A589A50A
:105290009AA520E030E04AEF54E40E941F02DC01AE
:1052A000CB018BA39CA3ADA3BEA36BA17CA18DA1BD
:1052B0009EA120E030E040E85FE30E9425048823BF
:1052C0002CF481E090E09AA389A33FC06BA17CA15C
:1052D0008DA19EA120E03FEF4FE757E40E94C50358
:1052E00018164CF56FA178A589A59AA520E030E0A5
:1052F00040E251E40E941F02DC01CB01BC01CD0160
:105300000E944900DC01CB019AA389A30FC088EC5D
:1053100090E098A38F8F8F8D98A10197F1F798A3B4
:105320008F8F89A19AA101979AA389A389A19AA194
:10533000009769F776CF6BA17CA18DA19EA10E94F9
:105340004900DC01CB019AA389A389A19AA19E8F70
:105350008D8F8D8D9E8D0197F1F79E8F8D8F61CFF3
:105360000E946F0C85E00E949E0C81E30E94F00C6D
:105370000E94890C80E090E0AAEFB3E4898F9A8FB5
:10538000AB8FBC8F698D7A8D8B8D9C8D20E030E04A
:105390004AEF54E40E941F02DC01CB018D8B9E8BEF
:1053A000AF8BB88F6D897E898F89988D20E030E032
:1053B00040E85FE30E94250488232CF481E090E01C
:1053C0009C8B8B8B3FC06D897E898F89988D20E067
:1053D0003FEF4FE757E40E94C50318164CF5698D5F
:1053E0007A8D8B8D9C8D20E030E040E251E40E946C
:1053F0001F02DC01CB01BC01CD010E944900DC0190
:10540000CB019C8B8B8B0FC088EC90E09A8B898BA7
:1054100089899A890197F1F79A8B898B8B899C8965
:1054200001979C8B8B8B8B899C89009769F7F9CEB0
:105430006D897E898F89988D0E944900DC01CB019E
:105440009C8B8B8B8B899C89988B8F878F85988978
:105450000197F1F7988B8F87E4CE0E946F0C85E05F
:105460000E949E0C83E30E94F00C0E94890C80E055
:1054700090E0AAEFB3E48B879C87AD87BE876B85EE
:105480007C858D859E8520E030E04AEF54E40E94C3
:105490001F02DC01CB018F839887A987BA876F81B0
:1054A000788589859A8520E030E040E85FE30E94B6
:1054B000250488232CF481E090E09E838D833FC0F7
:1054C0006F81788589859A8520E03FEF4FE757E423
:1054D0000E94C50318164CF56B857C858D859E85CD
:1054E00020E030E040E251E40E941F02DC01CB01E9
:1054F000BC01CD010E944900DC01CB019E838D835C
:105500000FC088EC90E09C838B838B819C810197FA
:10551000F1F79C838B838D819E8101979E838D8380
:105520008D819E81009769F77CCE6F817885898512
:105530009A850E944900DC01CB019E838D838D8179
:105540009E819A83898389819A810197F1F79A8351
:10555000898367CE8BA5843309F063CEAD960FB6F1
:10556000F894DEBF0FBECDBFCF91DF910895DF93DA
:10557000CF93CDB7DEB7A1970FB6F894DEBF0FBEBD
:10558000CDBF1E8E1D8E81E00E94860E80E060E001
:105590000E94851687E691E00E943D1781E060E059
:1055A0000E9485168FE791E00E943D17CE014F962D
:1055B0000E94540D8F8D813308F497C18F8D8333F2
:1055C00008F093C18F8D282F30E039A328A388A13C
:1055D00099A18133910539F028A139A122333105F0
:1055E00009F4C2C0E3CF81E00E94860E80E060E053
:1055F0000E94851688E891E00E943D1781E060E0F6
:105600000E948516CE014F960E94540D8F8D8033D7
:1056100008F18F8D8A33F0F48D8D9E8D31E08936BF
:105620009307C4F48F8D0E9400138D8D9E8D9C0175
:10563000220F331FC901880F991F880F991F280F48
:10564000391F8F8D882F90E0C097820F931F9E8FF8
:105650008D8FD8CF8F8D8D33A9F68D8D9E8DAA27F6
:1056600097FDA095BA2FBC01CD010E94BE340E94C7
:105670006F0C85E00E949E0C84E30E94F00C0E9457
:10568000890C80E090E0AAEFB3E4898F9A8FAB8F0A
:10569000BC8F698D7A8D8B8D9C8D20E030E04AEF38
:1056A00054E40E941F02DC01CB018D8B9E8BAF8BDB
:1056B000B88F6D897E898F89988D20E030E040E831
:1056C0005FE30E94250488232CF481E090E09C8B0A
:1056D0008B8B3FC06D897E898F89988D20E03FEF4D
:1056E0004FE757E40E94C50318164CF5698D7A8D73
:1056F0008B8D9C8D20E030E040E251E40E941F023F
:10570000DC01CB01BC01CD010E944900DC01CB01D1
:105710009C8B8B8B0FC088EC90E09A8B898B89894E
:105720009A890197F1F79A8B898B8B899C890197CC
:105730009C8B8B8B8B899C89009769F724CF6D8913
:105740007E898F89988D0E944900DC01CB019C8B5A
:105750008B8B8B899C89988B8F878F8598890197F4
:10576000F1F7988B8F870FCF81E00E94860E80E043
:1057700060E00E94851688E891E00E943D1781E074
:1057800060E00E948516CE014F960E94540D8F8DC9
:10579000803308F18F8D8A33F0F48D8D9E8D21E05A
:1057A00089369207C4F48F8D0E9400138D8D9E8DD3
:1057B0009C01220F331FC901880F991F880F991F61
:1057C000280F391F8F8D882F90E0C097820F931F6D
:1057D0009E8F8D8FD8CF8F8D8D33A9F68D8D9E8D19
:1057E000AA2797FDA095BA2FBC01CD010E94BE3417
:1057F0000E946F0C85E00E949E0C85E30E94F00CD5
:105800000E94890C80E090E0AAEFB3E48B879C872C
:10581000AD87BE876B857C858D859E8520E030E0D9
:105820004AEF54E40E941F02DC01CB018F8398876A
:10583000A987BA876F81788589859A8520E030E0CD
:1058400040E85FE30E94250488232CF481E090E087
:105850009E838D833FC06F81788589859A8520E0FE
:105860003FEF4FE757E40E94C50318164CF56B85D0
:105870007C858D859E8520E030E040E251E40E94E9
:105880001F02DC01CB01BC01CD010E944900DC01FB
:10589000CB019E838D830FC088EC90E09C838B832B
:1058A0008B819C810197F1F79C838B838D819E81F5
:1058B00001979E838D838D819E81009769F763CECA
:1058C0006F81788589859A850E944900DC01CB012A
:1058D0009E838D838D819E819A83898389819A811C
:1058E0000197F1F79A8389834ECE8F8D833309F028
:1058F0005DCEA1960FB6F894DEBF0FBECDBFCF919F
:10590000DF910895DF93CF93CDB7DEB76E970FB6D3
:10591000F894DEBF0FBECDBF81E060E041E00E94A1
:10592000FC068DE991E00E943D1781E060E00E9455
:1059300085168FE791E00E943D178CE993E00E9465
:10594000540D80919C03813308F427C180919C03FE
:10595000873308F022C180919C03282F30E03E8FCE
:105960002D8F8D8D9E8D8233910509F48EC02D8DE6
:105970003E8D2333310509F40AC18D8D9E8D81330F
:10598000910509F00AC181E00E94860E85EB91E045
:105990000E943D1781E060E041E00E94150880E030
:1059A00090E0AAEFB3E4898F9A8FAB8FBC8F698D9B
:1059B0007A8D8B8D9C8D20E030E04AEF54E40E947C
:1059C0001F02DC01CB018D8B9E8BAF8BB88F6D8955
:1059D0007E898F89988D20E030E040E85FE30E9467
:1059E000250488232CF481E090E09C8B8B8B3FC0B6
:1059F0006D897E898F89988D20E03FEF4FE757E4CE
:105A00000E94C50318164CF5698D7A8D8B8D9C8D7F
:105A100020E030E040E251E40E941F02DC01CB01B3
:105A2000BC01CD010E944900DC01CB019C8B8B8B1A
:105A30000FC088EC90E09A8B898B89899A890197AD
:105A4000F1F79A8B898B8B899C8901979C8B8B8B27
:105A50008B899C89009769F714C06D897E898F892D
:105A6000988D0E944900DC01CB019C8B8B8B8B892C
:105A70009C89988B8F878F8598890197F1F7988BF0
:105A80008F8781E00E94860E4CCF81E00E94860EB7
:105A900080EC91E00E943D1781E060E040E00E94D0
:105AA000150880E090E0AAEFB3E48B879C87AD8770
:105AB000BE876B857C858D859E8520E030E04AEF32
:105AC00054E40E941F02DC01CB018F839887A987D1
:105AD000BA876F81788589859A8520E030E040E833
